{
  "_format": "hh-sol-artifact-1",
  "contractName": "DexBattleWithDex",
  "sourceName": "contracts/DexBattleWithDex.sol",
  "abi": [
    {
      "inputs": [
        {
          "internalType": "address",
          "name": "_tokenAddress",
          "type": "address"
        }
      ],
      "stateMutability": "nonpayable",
      "type": "constructor"
    },
    {
      "anonymous": false,
      "inputs": [
        {
          "indexed": true,
          "internalType": "address",
          "name": "account",
          "type": "address"
        },
        {
          "indexed": true,
          "internalType": "address",
          "name": "operator",
          "type": "address"
        },
        {
          "indexed": false,
          "internalType": "bool",
          "name": "approved",
          "type": "bool"
        }
      ],
      "name": "ApprovalForAll",
      "type": "event"
    },
    {
      "anonymous": false,
      "inputs": [
        {
          "indexed": true,
          "internalType": "address",
          "name": "previousOwner",
          "type": "address"
        },
        {
          "indexed": true,
          "internalType": "address",
          "name": "newOwner",
          "type": "address"
        }
      ],
      "name": "OwnershipTransferred",
      "type": "event"
    },
    {
      "anonymous": false,
      "inputs": [
        {
          "indexed": true,
          "internalType": "address",
          "name": "operator",
          "type": "address"
        },
        {
          "indexed": true,
          "internalType": "address",
          "name": "from",
          "type": "address"
        },
        {
          "indexed": true,
          "internalType": "address",
          "name": "to",
          "type": "address"
        },
        {
          "indexed": false,
          "internalType": "uint256[]",
          "name": "ids",
          "type": "uint256[]"
        },
        {
          "indexed": false,
          "internalType": "uint256[]",
          "name": "values",
          "type": "uint256[]"
        }
      ],
      "name": "TransferBatch",
      "type": "event"
    },
    {
      "anonymous": false,
      "inputs": [
        {
          "indexed": true,
          "internalType": "address",
          "name": "operator",
          "type": "address"
        },
        {
          "indexed": true,
          "internalType": "address",
          "name": "from",
          "type": "address"
        },
        {
          "indexed": true,
          "internalType": "address",
          "name": "to",
          "type": "address"
        },
        {
          "indexed": false,
          "internalType": "uint256",
          "name": "id",
          "type": "uint256"
        },
        {
          "indexed": false,
          "internalType": "uint256",
          "name": "value",
          "type": "uint256"
        }
      ],
      "name": "TransferSingle",
      "type": "event"
    },
    {
      "anonymous": false,
      "inputs": [
        {
          "indexed": false,
          "internalType": "string",
          "name": "value",
          "type": "string"
        },
        {
          "indexed": true,
          "internalType": "uint256",
          "name": "id",
          "type": "uint256"
        }
      ],
      "name": "URI",
      "type": "event"
    },
    {
      "inputs": [],
      "name": "Common_items_cost",
      "outputs": [
        {
          "internalType": "uint256",
          "name": "",
          "type": "uint256"
        }
      ],
      "stateMutability": "view",
      "type": "function"
    },
    {
      "inputs": [],
      "name": "Epic_items_cost",
      "outputs": [
        {
          "internalType": "uint256",
          "name": "",
          "type": "uint256"
        }
      ],
      "stateMutability": "view",
      "type": "function"
    },
    {
      "inputs": [],
      "name": "Leader_items_cost",
      "outputs": [
        {
          "internalType": "uint256",
          "name": "",
          "type": "uint256"
        }
      ],
      "stateMutability": "view",
      "type": "function"
    },
    {
      "inputs": [],
      "name": "Legendary_items_cost",
      "outputs": [
        {
          "internalType": "uint256",
          "name": "",
          "type": "uint256"
        }
      ],
      "stateMutability": "view",
      "type": "function"
    },
    {
      "inputs": [],
      "name": "Rare_items_cost",
      "outputs": [
        {
          "internalType": "uint256",
          "name": "",
          "type": "uint256"
        }
      ],
      "stateMutability": "view",
      "type": "function"
    },
    {
      "inputs": [],
      "name": "Uncommon_items_cost",
      "outputs": [
        {
          "internalType": "uint256",
          "name": "",
          "type": "uint256"
        }
      ],
      "stateMutability": "view",
      "type": "function"
    },
    {
      "inputs": [
        {
          "internalType": "address",
          "name": "account",
          "type": "address"
        },
        {
          "internalType": "uint256",
          "name": "id",
          "type": "uint256"
        }
      ],
      "name": "balanceOf",
      "outputs": [
        {
          "internalType": "uint256",
          "name": "",
          "type": "uint256"
        }
      ],
      "stateMutability": "view",
      "type": "function"
    },
    {
      "inputs": [
        {
          "internalType": "address[]",
          "name": "accounts",
          "type": "address[]"
        },
        {
          "internalType": "uint256[]",
          "name": "ids",
          "type": "uint256[]"
        }
      ],
      "name": "balanceOfBatch",
      "outputs": [
        {
          "internalType": "uint256[]",
          "name": "",
          "type": "uint256[]"
        }
      ],
      "stateMutability": "view",
      "type": "function"
    },
    {
      "inputs": [
        {
          "internalType": "uint256",
          "name": "id",
          "type": "uint256"
        }
      ],
      "name": "exists",
      "outputs": [
        {
          "internalType": "bool",
          "name": "",
          "type": "bool"
        }
      ],
      "stateMutability": "view",
      "type": "function"
    },
    {
      "inputs": [
        {
          "internalType": "address",
          "name": "account",
          "type": "address"
        },
        {
          "internalType": "address",
          "name": "operator",
          "type": "address"
        }
      ],
      "name": "isApprovedForAll",
      "outputs": [
        {
          "internalType": "bool",
          "name": "",
          "type": "bool"
        }
      ],
      "stateMutability": "view",
      "type": "function"
    },
    {
      "inputs": [],
      "name": "maxCommonSupply",
      "outputs": [
        {
          "internalType": "uint256",
          "name": "",
          "type": "uint256"
        }
      ],
      "stateMutability": "view",
      "type": "function"
    },
    {
      "inputs": [],
      "name": "maxEpicSupply",
      "outputs": [
        {
          "internalType": "uint256",
          "name": "",
          "type": "uint256"
        }
      ],
      "stateMutability": "view",
      "type": "function"
    },
    {
      "inputs": [],
      "name": "maxLeaderSupply",
      "outputs": [
        {
          "internalType": "uint256",
          "name": "",
          "type": "uint256"
        }
      ],
      "stateMutability": "view",
      "type": "function"
    },
    {
      "inputs": [],
      "name": "maxLegendarySupply",
      "outputs": [
        {
          "internalType": "uint256",
          "name": "",
          "type": "uint256"
        }
      ],
      "stateMutability": "view",
      "type": "function"
    },
    {
      "inputs": [],
      "name": "maxRareSupply",
      "outputs": [
        {
          "internalType": "uint256",
          "name": "",
          "type": "uint256"
        }
      ],
      "stateMutability": "view",
      "type": "function"
    },
    {
      "inputs": [],
      "name": "maxUncommonSupply",
      "outputs": [
        {
          "internalType": "uint256",
          "name": "",
          "type": "uint256"
        }
      ],
      "stateMutability": "view",
      "type": "function"
    },
    {
      "inputs": [
        {
          "internalType": "uint256",
          "name": "id",
          "type": "uint256"
        }
      ],
      "name": "mint",
      "outputs": [],
      "stateMutability": "nonpayable",
      "type": "function"
    },
    {
      "inputs": [],
      "name": "owner",
      "outputs": [
        {
          "internalType": "address",
          "name": "",
          "type": "address"
        }
      ],
      "stateMutability": "view",
      "type": "function"
    },
    {
      "inputs": [],
      "name": "paused",
      "outputs": [
        {
          "internalType": "bool",
          "name": "",
          "type": "bool"
        }
      ],
      "stateMutability": "view",
      "type": "function"
    },
    {
      "inputs": [],
      "name": "renounceOwnership",
      "outputs": [],
      "stateMutability": "nonpayable",
      "type": "function"
    },
    {
      "inputs": [
        {
          "internalType": "address",
          "name": "from",
          "type": "address"
        },
        {
          "internalType": "address",
          "name": "to",
          "type": "address"
        },
        {
          "internalType": "uint256[]",
          "name": "ids",
          "type": "uint256[]"
        },
        {
          "internalType": "uint256[]",
          "name": "amounts",
          "type": "uint256[]"
        },
        {
          "internalType": "bytes",
          "name": "data",
          "type": "bytes"
        }
      ],
      "name": "safeBatchTransferFrom",
      "outputs": [],
      "stateMutability": "nonpayable",
      "type": "function"
    },
    {
      "inputs": [
        {
          "internalType": "address",
          "name": "from",
          "type": "address"
        },
        {
          "internalType": "address",
          "name": "to",
          "type": "address"
        },
        {
          "internalType": "uint256",
          "name": "id",
          "type": "uint256"
        },
        {
          "internalType": "uint256",
          "name": "amount",
          "type": "uint256"
        },
        {
          "internalType": "bytes",
          "name": "data",
          "type": "bytes"
        }
      ],
      "name": "safeTransferFrom",
      "outputs": [],
      "stateMutability": "nonpayable",
      "type": "function"
    },
    {
      "inputs": [
        {
          "internalType": "address",
          "name": "operator",
          "type": "address"
        },
        {
          "internalType": "bool",
          "name": "approved",
          "type": "bool"
        }
      ],
      "name": "setApprovalForAll",
      "outputs": [],
      "stateMutability": "nonpayable",
      "type": "function"
    },
    {
      "inputs": [
        {
          "internalType": "uint256",
          "name": "_newsupply",
          "type": "uint256"
        }
      ],
      "name": "setMaxCommonSupply",
      "outputs": [],
      "stateMutability": "nonpayable",
      "type": "function"
    },
    {
      "inputs": [
        {
          "internalType": "uint256",
          "name": "_newsupply",
          "type": "uint256"
        }
      ],
      "name": "setMaxEpicSupply",
      "outputs": [],
      "stateMutability": "nonpayable",
      "type": "function"
    },
    {
      "inputs": [
        {
          "internalType": "uint256",
          "name": "_newsupply",
          "type": "uint256"
        }
      ],
      "name": "setMaxLegendarySupply",
      "outputs": [],
      "stateMutability": "nonpayable",
      "type": "function"
    },
    {
      "inputs": [
        {
          "internalType": "uint256",
          "name": "_newsupply",
          "type": "uint256"
        }
      ],
      "name": "setMaxRareSupply",
      "outputs": [],
      "stateMutability": "nonpayable",
      "type": "function"
    },
    {
      "inputs": [
        {
          "internalType": "uint256",
          "name": "_newsupply",
          "type": "uint256"
        }
      ],
      "name": "setMaxUncommonSupply",
      "outputs": [],
      "stateMutability": "nonpayable",
      "type": "function"
    },
    {
      "inputs": [
        {
          "internalType": "uint256",
          "name": "_newsupply",
          "type": "uint256"
        }
      ],
      "name": "setMaxleaderSupply",
      "outputs": [],
      "stateMutability": "nonpayable",
      "type": "function"
    },
    {
      "inputs": [
        {
          "internalType": "string",
          "name": "newuri",
          "type": "string"
        }
      ],
      "name": "setURI",
      "outputs": [],
      "stateMutability": "nonpayable",
      "type": "function"
    },
    {
      "inputs": [
        {
          "internalType": "uint256",
          "name": "_newcost",
          "type": "uint256"
        }
      ],
      "name": "set_Common_items_cost",
      "outputs": [],
      "stateMutability": "nonpayable",
      "type": "function"
    },
    {
      "inputs": [
        {
          "internalType": "uint256",
          "name": "_newcost",
          "type": "uint256"
        }
      ],
      "name": "set_Epic_items_cost",
      "outputs": [],
      "stateMutability": "nonpayable",
      "type": "function"
    },
    {
      "inputs": [
        {
          "internalType": "uint256",
          "name": "_newcost",
          "type": "uint256"
        }
      ],
      "name": "set_Leader_items_cost",
      "outputs": [],
      "stateMutability": "nonpayable",
      "type": "function"
    },
    {
      "inputs": [
        {
          "internalType": "uint256",
          "name": "_newcost",
          "type": "uint256"
        }
      ],
      "name": "set_Legendary_items_cost",
      "outputs": [],
      "stateMutability": "nonpayable",
      "type": "function"
    },
    {
      "inputs": [
        {
          "internalType": "uint256",
          "name": "_newcost",
          "type": "uint256"
        }
      ],
      "name": "set_Rare_items_cost",
      "outputs": [],
      "stateMutability": "nonpayable",
      "type": "function"
    },
    {
      "inputs": [
        {
          "internalType": "uint256",
          "name": "_newcost",
          "type": "uint256"
        }
      ],
      "name": "set_Uncommon_items_cost",
      "outputs": [],
      "stateMutability": "nonpayable",
      "type": "function"
    },
    {
      "inputs": [
        {
          "internalType": "bytes4",
          "name": "interfaceId",
          "type": "bytes4"
        }
      ],
      "name": "supportsInterface",
      "outputs": [
        {
          "internalType": "bool",
          "name": "",
          "type": "bool"
        }
      ],
      "stateMutability": "view",
      "type": "function"
    },
    {
      "inputs": [
        {
          "internalType": "bool",
          "name": "_state",
          "type": "bool"
        }
      ],
      "name": "togglePause",
      "outputs": [],
      "stateMutability": "nonpayable",
      "type": "function"
    },
    {
      "inputs": [],
      "name": "tokenAddress",
      "outputs": [
        {
          "internalType": "contract IERC20",
          "name": "",
          "type": "address"
        }
      ],
      "stateMutability": "view",
      "type": "function"
    },
    {
      "inputs": [
        {
          "internalType": "uint256",
          "name": "id",
          "type": "uint256"
        }
      ],
      "name": "totalSupply",
      "outputs": [
        {
          "internalType": "uint256",
          "name": "",
          "type": "uint256"
        }
      ],
      "stateMutability": "view",
      "type": "function"
    },
    {
      "inputs": [
        {
          "internalType": "address",
          "name": "newOwner",
          "type": "address"
        }
      ],
      "name": "transferOwnership",
      "outputs": [],
      "stateMutability": "nonpayable",
      "type": "function"
    },
    {
      "inputs": [
        {
          "internalType": "uint256",
          "name": "_id",
          "type": "uint256"
        }
      ],
      "name": "uri",
      "outputs": [
        {
          "internalType": "string",
          "name": "",
          "type": "string"
        }
      ],
      "stateMutability": "view",
      "type": "function"
    },
    {
      "inputs": [],
      "name": "withdrawToken",
      "outputs": [],
      "stateMutability": "nonpayable",
      "type": "function"
    }
  ],
  "bytecode": "0x608060405260196005556096600681905560fa60075561015e6008556101906009556101f4600a55610bb8600b5560c8600c55600d556064600e55604b600f5560326010556013805460ff191690553480156200005b57600080fd5b50604051620026df380380620026df8339810160408190526200007e91620001ec565b604051806060016040528060368152602001620026a960369139620000a381620000db565b50620000af33620000f4565b601380546001600160a01b0390921661010002610100600160a81b031990921691909117905562000259565b8051620000f090600290602084019062000146565b5050565b600380546001600160a01b038381166001600160a01b0319831681179093556040519116919082907f8be0079c531659141344cd1fd0a4f28419497f9722a3daafe3b4186f6b6457e090600090a35050565b82805462000154906200021c565b90600052602060002090601f016020900481019282620001785760008555620001c3565b82601f106200019357805160ff1916838001178555620001c3565b82800160010185558215620001c3579182015b82811115620001c3578251825591602001919060010190620001a6565b50620001d1929150620001d5565b5090565b5b80821115620001d15760008155600101620001d6565b600060208284031215620001fe578081fd5b81516001600160a01b038116811462000215578182fd5b9392505050565b600181811c908216806200023157607f821691505b602082108114156200025357634e487b7160e01b600052602260045260246000fd5b50919050565b61244080620002696000396000f3fe608060405234801561001057600080fd5b50600436106102685760003560e01c80639a41aa7311610151578063c8eb86c8116100c3578063da248c4b11610087578063da248c4b14610514578063dd6f175214610527578063e985e9c514610530578063f242432a1461056c578063f2fde38b1461057f578063fad078df1461059257600080fd5b8063c8eb86c8146104de578063ca5605b3146104e7578063ca628c78146104f0578063ce1d91f4146104f8578063d02439fe1461050b57600080fd5b8063aeb8062111610115578063aeb8062114610469578063b78a5d771461047c578063b7e2698d1461048f578063b7f24320146104a2578063bd85b039146104b5578063bf7ee4a5146104d557600080fd5b80639a41aa73146104195780639d76ea5814610422578063a0712d681461043a578063a22cb4651461044d578063ab2483481461046057600080fd5b80634e1273f4116101ea5780635c975abb116101ae5780635c975abb146103a657806366871520146103b3578063715018a6146103c65780637814308b146103ce5780638d61e9f1146103e15780638da5cb5b146103f457600080fd5b80634e1273f4146103355780634f558e7914610355578063559c039a1461037757806357d159c6146103805780635c774f031461039357600080fd5b806325ba5f561161023157806325ba5f56146102fe5780632eb2c2d6146103075780633235d3971461031a5780633ba09b9e1461032357806340624b791461032c57600080fd5b8062fdd58e1461026d57806301ffc9a71461029357806302fe5305146102b65780630e89341c146102cb5780631e6b8b82146102eb575b600080fd5b61028061027b366004611d67565b6105a5565b6040519081526020015b60405180910390f35b6102a66102a1366004611e93565b61063b565b604051901515815260200161028a565b6102c96102c4366004611ecb565b61068d565b005b6102de6102d9366004611f19565b6106a1565b60405161028a91906120d2565b6102c96102f9366004611f19565b610738565b61028060085481565b6102c9610315366004611c28565b610745565b61028060055481565b61028060075481565b610280600d5481565b610348610343366004611d90565b610791565b60405161028a9190612091565b6102a6610363366004611f19565b600090815260046020526040902054151590565b61028060095481565b6102c961038e366004611e5b565b6108f3565b6102c96103a1366004611f19565b61090e565b6013546102a69060ff1681565b6102c96103c1366004611f19565b61091b565b6102c9610928565b6102c96103dc366004611f19565b61093c565b6102c96103ef366004611f19565b610949565b6003546001600160a01b03165b6040516001600160a01b03909116815260200161028a565b610280600b5481565b6013546104019061010090046001600160a01b031681565b6102c9610448366004611f19565b610956565b6102c961045b366004611d31565b610b55565b61028060065481565b6102c9610477366004611f19565b610b64565b6102c961048a366004611f19565b610b71565b6102c961049d366004611f19565b610b7e565b6102c96104b0366004611f19565b610b8b565b6102806104c3366004611f19565b60009081526004602052604090205490565b61028060105481565b610280600e5481565b610280600f5481565b6102c9610b98565b6102c9610506366004611f19565b610ca7565b610280600c5481565b6102c9610522366004611f19565b610cb4565b610280600a5481565b6102a661053e366004611bf6565b6001600160a01b03918216600090815260016020908152604080832093909416825291909152205460ff1690565b6102c961057a366004611cce565b610cc1565b6102c961058d366004611bdc565b610d06565b6102c96105a0366004611f19565b610d7c565b60006001600160a01b0383166106155760405162461bcd60e51b815260206004820152602a60248201527f455243313135353a2061646472657373207a65726f206973206e6f742061207660448201526930b634b21037bbb732b960b11b60648201526084015b60405180910390fd5b506000908152602081815260408083206001600160a01b03949094168352929052205490565b60006001600160e01b03198216636cdb3d1360e11b148061066c57506001600160e01b031982166303a24d0760e21b145b8061068757506301ffc9a760e01b6001600160e01b03198316145b92915050565b610695610d89565b61069e81610de3565b50565b6000818152600460205260409020546060906106ff5760405162461bcd60e51b815260206004820152601860248201527f5552493a20746f6b656e20646f65736e27742065786973740000000000000000604482015260640161060c565b61070882610df6565b61071183610e8a565b604051602001610722929190611faf565b6040516020818303038152906040529050919050565b610740610d89565b600555565b6001600160a01b0385163314806107615750610761853361053e565b61077d5760405162461bcd60e51b815260040161060c9061212d565b61078a8585858585610f2d565b5050505050565b606081518351146107f65760405162461bcd60e51b815260206004820152602960248201527f455243313135353a206163636f756e747320616e6420696473206c656e677468604482015268040dad2e6dac2e8c6d60bb1b606482015260840161060c565b6000835167ffffffffffffffff81111561082057634e487b7160e01b600052604160045260246000fd5b604051908082528060200260200182016040528015610849578160200160208202803683370190505b50905060005b84518110156108eb576108b085828151811061087b57634e487b7160e01b600052603260045260246000fd5b60200260200101518583815181106108a357634e487b7160e01b600052603260045260246000fd5b60200260200101516105a5565b8282815181106108d057634e487b7160e01b600052603260045260246000fd5b60209081029190910101526108e4816122fd565b905061084f565b509392505050565b6108fb610d89565b6013805460ff1916911515919091179055565b610916610d89565b600b55565b610923610d89565b600655565b610930610d89565b61093a6000611134565b565b610944610d89565b600f55565b610951610d89565b600d55565b6080811061096f57600654601155600c546012556109e0565b6063811061098857600754601155600d546012556109e0565b604081106109a157600854601155600e546012556109e0565b602581106109ba57600954601155600f546012556109e0565b600a81106109d357600a546011556010546012556109e0565b600554601155600b546012555b60115460008281526004602052604090205410610a2c5760405162461bcd60e51b815260206004820152600a60248201526915d9481cdbdb191bdd5d60b21b604482015260640161060c565b60135460ff1615610a755760405162461bcd60e51b8152602060048201526013602482015272636f6e7472616374206973207061757365642160681b604482015260640161060c565b601360019054906101000a90046001600160a01b03166001600160a01b03166323b872dd3330601254670de0b6b3a7640000610ab19190612246565b6040516001600160e01b031960e086901b1681526001600160a01b0393841660048201529290911660248301526044820152606401602060405180830381600087803b158015610b0057600080fd5b505af1158015610b14573d6000803e3d6000fd5b505050506040513d601f19601f82011682018060405250810190610b389190611e77565b5061069e3382600160405180602001604052806000815250611186565b610b603383836112a9565b5050565b610b6c610d89565b600955565b610b79610d89565b600e55565b610b86610d89565b600a55565b610b93610d89565b600855565b610ba0610d89565b6013546040516370a0823160e01b81523060048201526101009091046001600160a01b03169063a9059cbb90339083906370a082319060240160206040518083038186803b158015610bf157600080fd5b505afa158015610c05573d6000803e3d6000fd5b505050506040513d601f19601f82011682018060405250810190610c299190611f31565b6040516001600160e01b031960e085901b1681526001600160a01b0390921660048301526024820152604401602060405180830381600087803b158015610c6f57600080fd5b505af1158015610c83573d6000803e3d6000fd5b505050506040513d601f19601f8201168201806040525081019061069e9190611e77565b610caf610d89565b600c55565b610cbc610d89565b601055565b6001600160a01b038516331480610cdd5750610cdd853361053e565b610cf95760405162461bcd60e51b815260040161060c9061212d565b61078a858585858561138a565b610d0e610d89565b6001600160a01b038116610d735760405162461bcd60e51b815260206004820152602660248201527f4f776e61626c653a206e6577206f776e657220697320746865207a65726f206160448201526564647265737360d01b606482015260840161060c565b61069e81611134565b610d84610d89565b600755565b6003546001600160a01b0316331461093a5760405162461bcd60e51b815260206004820181905260248201527f4f776e61626c653a2063616c6c6572206973206e6f7420746865206f776e6572604482015260640161060c565b8051610b60906002906020840190611a2f565b606060028054610e0590612295565b80601f0160208091040260200160405190810160405280929190818152602001828054610e3190612295565b8015610e7e5780601f10610e5357610100808354040283529160200191610e7e565b820191906000526020600020905b815481529060010190602001808311610e6157829003601f168201915b50505050509050919050565b60606000610e97836114c2565b600101905060008167ffffffffffffffff811115610ec557634e487b7160e01b600052604160045260246000fd5b6040519080825280601f01601f191660200182016040528015610eef576020820181803683370190505b5090508181016020015b600019016f181899199a1a9b1b9c1cb0b131b232b360811b600a86061a8153600a8504945084610f28576108eb565b610ef9565b8151835114610f8f5760405162461bcd60e51b815260206004820152602860248201527f455243313135353a2069647320616e6420616d6f756e7473206c656e677468206044820152670dad2e6dac2e8c6d60c31b606482015260840161060c565b6001600160a01b038416610fb55760405162461bcd60e51b815260040161060c9061217b565b33610fc481878787878761159a565b60005b84518110156110c6576000858281518110610ff257634e487b7160e01b600052603260045260246000fd5b60200260200101519050600085838151811061101e57634e487b7160e01b600052603260045260246000fd5b602090810291909101810151600084815280835260408082206001600160a01b038e16835290935291909120549091508181101561106e5760405162461bcd60e51b815260040161060c906121c0565b6000838152602081815260408083206001600160a01b038e8116855292528083208585039055908b168252812080548492906110ab90849061222e565b92505081905550505050806110bf906122fd565b9050610fc7565b50846001600160a01b0316866001600160a01b0316826001600160a01b03167f4a39dc06d4c0dbc64b70af90fd698a233a518aa5d07e595d983b8c0526c8f7fb87876040516111169291906120a4565b60405180910390a461112c8187878787876115f0565b505050505050565b600380546001600160a01b038381166001600160a01b0319831681179093556040519116919082907f8be0079c531659141344cd1fd0a4f28419497f9722a3daafe3b4186f6b6457e090600090a35050565b6001600160a01b0384166111e65760405162461bcd60e51b815260206004820152602160248201527f455243313135353a206d696e7420746f20746865207a65726f206164647265736044820152607360f81b606482015260840161060c565b3360006111f28561175b565b905060006111ff8561175b565b90506112108360008985858961159a565b6000868152602081815260408083206001600160a01b038b1684529091528120805487929061124090849061222e565b909155505060408051878152602081018790526001600160a01b03808a1692600092918716917fc3d58168c5ae7397731d063d5bbf3d657854427343f4c083240f7aacaa2d0f62910160405180910390a46112a0836000898989896117b4565b50505050505050565b816001600160a01b0316836001600160a01b0316141561131d5760405162461bcd60e51b815260206004820152602960248201527f455243313135353a2073657474696e6720617070726f76616c20737461747573604482015268103337b91039b2b63360b91b606482015260840161060c565b6001600160a01b03838116600081815260016020908152604080832094871680845294825291829020805460ff191686151590811790915591519182527f17307eab39ab6107e8899845ad3d59bd9653f200f220920489ca2b5937696c31910160405180910390a3505050565b6001600160a01b0384166113b05760405162461bcd60e51b815260040161060c9061217b565b3360006113bc8561175b565b905060006113c98561175b565b90506113d983898985858961159a565b6000868152602081815260408083206001600160a01b038c1684529091529020548581101561141a5760405162461bcd60e51b815260040161060c906121c0565b6000878152602081815260408083206001600160a01b038d8116855292528083208985039055908a1682528120805488929061145790849061222e565b909155505060408051888152602081018890526001600160a01b03808b16928c821692918816917fc3d58168c5ae7397731d063d5bbf3d657854427343f4c083240f7aacaa2d0f62910160405180910390a46114b7848a8a8a8a8a6117b4565b505050505050505050565b60008072184f03e93ff9f4daa797ed6e38ed64bf6a1f0160401b83106115015772184f03e93ff9f4daa797ed6e38ed64bf6a1f0160401b830492506040015b6d04ee2d6d415b85acef8100000000831061152d576d04ee2d6d415b85acef8100000000830492506020015b662386f26fc10000831061154b57662386f26fc10000830492506010015b6305f5e1008310611563576305f5e100830492506008015b612710831061157757612710830492506004015b60648310611589576064830492506002015b600a83106106875760010192915050565b60135460ff16156115e25760405162461bcd60e51b815260206004820152601260248201527118dbdb9d1c9858dd081a5cc81c185d5cd95960721b604482015260640161060c565b61112c86868686868661187e565b6001600160a01b0384163b1561112c5760405163bc197c8160e01b81526001600160a01b0385169063bc197c81906116349089908990889088908890600401611fee565b602060405180830381600087803b15801561164e57600080fd5b505af192505050801561167e575060408051601f3d908101601f1916820190925261167b91810190611eaf565b60015b61172b5761168a612344565b806308c379a014156116c4575061169f61235c565b806116aa57506116c6565b8060405162461bcd60e51b815260040161060c91906120d2565b505b60405162461bcd60e51b815260206004820152603460248201527f455243313135353a207472616e7366657220746f206e6f6e2d455243313135356044820152732932b1b2b4bb32b91034b6b83632b6b2b73a32b960611b606482015260840161060c565b6001600160e01b0319811663bc197c8160e01b146112a05760405162461bcd60e51b815260040161060c906120e5565b604080516001808252818301909252606091600091906020808301908036833701905050905082816000815181106117a357634e487b7160e01b600052603260045260246000fd5b602090810291909101015292915050565b6001600160a01b0384163b1561112c5760405163f23a6e6160e01b81526001600160a01b0385169063f23a6e61906117f8908990899088908890889060040161204c565b602060405180830381600087803b15801561181257600080fd5b505af1925050508015611842575060408051601f3d908101601f1916820190925261183f91810190611eaf565b60015b61184e5761168a612344565b6001600160e01b0319811663f23a6e6160e01b146112a05760405162461bcd60e51b815260040161060c906120e5565b6001600160a01b0385166119215760005b835181101561191f578281815181106118b857634e487b7160e01b600052603260045260246000fd5b6020026020010151600460008684815181106118e457634e487b7160e01b600052603260045260246000fd5b602002602001015181526020019081526020016000206000828254611909919061222e565b909155506119189050816122fd565b905061188f565b505b6001600160a01b03841661112c5760005b83518110156112a057600084828151811061195d57634e487b7160e01b600052603260045260246000fd5b60200260200101519050600084838151811061198957634e487b7160e01b600052603260045260246000fd5b6020026020010151905060006004600084815260200190815260200160002054905081811015611a0c5760405162461bcd60e51b815260206004820152602860248201527f455243313135353a206275726e20616d6f756e74206578636565647320746f74604482015267616c537570706c7960c01b606482015260840161060c565b60009283526004602052604090922091039055611a28816122fd565b9050611932565b828054611a3b90612295565b90600052602060002090601f016020900481019282611a5d5760008555611aa3565b82601f10611a7657805160ff1916838001178555611aa3565b82800160010185558215611aa3579182015b82811115611aa3578251825591602001919060010190611a88565b50611aaf929150611ab3565b5090565b5b80821115611aaf5760008155600101611ab4565b600067ffffffffffffffff831115611ae257611ae261232e565b604051611af9601f8501601f1916602001826122d0565b809150838152848484011115611b0e57600080fd5b83836020830137600060208583010152509392505050565b80356001600160a01b0381168114611b3d57600080fd5b919050565b600082601f830112611b52578081fd5b81356020611b5f8261220a565b604051611b6c82826122d0565b8381528281019150858301600585901b87018401881015611b8b578586fd5b855b85811015611ba957813584529284019290840190600101611b8d565b5090979650505050505050565b600082601f830112611bc6578081fd5b611bd583833560208501611ac8565b9392505050565b600060208284031215611bed578081fd5b611bd582611b26565b60008060408385031215611c08578081fd5b611c1183611b26565b9150611c1f60208401611b26565b90509250929050565b600080600080600060a08688031215611c3f578081fd5b611c4886611b26565b9450611c5660208701611b26565b9350604086013567ffffffffffffffff80821115611c72578283fd5b611c7e89838a01611b42565b94506060880135915080821115611c93578283fd5b611c9f89838a01611b42565b93506080880135915080821115611cb4578283fd5b50611cc188828901611bb6565b9150509295509295909350565b600080600080600060a08688031215611ce5578081fd5b611cee86611b26565b9450611cfc60208701611b26565b93506040860135925060608601359150608086013567ffffffffffffffff811115611d25578182fd5b611cc188828901611bb6565b60008060408385031215611d43578182fd5b611d4c83611b26565b91506020830135611d5c816123e6565b809150509250929050565b60008060408385031215611d79578182fd5b611d8283611b26565b946020939093013593505050565b60008060408385031215611da2578182fd5b823567ffffffffffffffff80821115611db9578384fd5b818501915085601f830112611dcc578384fd5b81356020611dd98261220a565b604051611de682826122d0565b8381528281019150858301600585901b870184018b1015611e05578889fd5b8896505b84871015611e2e57611e1a81611b26565b835260019690960195918301918301611e09565b5096505086013592505080821115611e44578283fd5b50611e5185828601611b42565b9150509250929050565b600060208284031215611e6c578081fd5b8135611bd5816123e6565b600060208284031215611e88578081fd5b8151611bd5816123e6565b600060208284031215611ea4578081fd5b8135611bd5816123f4565b600060208284031215611ec0578081fd5b8151611bd5816123f4565b600060208284031215611edc578081fd5b813567ffffffffffffffff811115611ef2578182fd5b8201601f81018413611f02578182fd5b611f1184823560208401611ac8565b949350505050565b600060208284031215611f2a578081fd5b5035919050565b600060208284031215611f42578081fd5b5051919050565b6000815180845260208085019450808401835b83811015611f7857815187529582019590820190600101611f5c565b509495945050505050565b60008151808452611f9b816020860160208601612265565b601f01601f19169290920160200192915050565b60008351611fc1818460208801612265565b835190830190611fd5818360208801612265565b64173539b7b760d91b9101908152600501949350505050565b6001600160a01b0386811682528516602082015260a06040820181905260009061201a90830186611f49565b828103606084015261202c8186611f49565b905082810360808401526120408185611f83565b98975050505050505050565b6001600160a01b03868116825285166020820152604081018490526060810183905260a06080820181905260009061208690830184611f83565b979650505050505050565b602081526000611bd56020830184611f49565b6040815260006120b76040830185611f49565b82810360208401526120c98185611f49565b95945050505050565b602081526000611bd56020830184611f83565b60208082526028908201527f455243313135353a204552433131353552656365697665722072656a656374656040820152676420746f6b656e7360c01b606082015260800190565b6020808252602e908201527f455243313135353a2063616c6c6572206973206e6f7420746f6b656e206f776e60408201526d195c881bdc88185c1c1c9bdd995960921b606082015260800190565b60208082526025908201527f455243313135353a207472616e7366657220746f20746865207a65726f206164604082015264647265737360d81b606082015260800190565b6020808252602a908201527f455243313135353a20696e73756666696369656e742062616c616e636520666f60408201526939103a3930b739b332b960b11b606082015260800190565b600067ffffffffffffffff8211156122245761222461232e565b5060051b60200190565b6000821982111561224157612241612318565b500190565b600081600019048311821515161561226057612260612318565b500290565b60005b83811015612280578181015183820152602001612268565b8381111561228f576000848401525b50505050565b600181811c908216806122a957607f821691505b602082108114156122ca57634e487b7160e01b600052602260045260246000fd5b50919050565b601f8201601f1916810167ffffffffffffffff811182821017156122f6576122f661232e565b6040525050565b600060001982141561231157612311612318565b5060010190565b634e487b7160e01b600052601160045260246000fd5b634e487b7160e01b600052604160045260246000fd5b600060033d111561235957600481823e5160e01c5b90565b600060443d101561236a5790565b6040516003193d81016004833e81513d67ffffffffffffffff816024840111818411171561239a57505050505090565b82850191508151818111156123b25750505050505090565b843d87010160208285010111156123cc5750505050505090565b6123db602082860101876122d0565b509095945050505050565b801515811461069e57600080fd5b6001600160e01b03198116811461069e57600080fdfea264697066735822122087df5b1157f9d74aa2658ff18c9cd2d013662e7fba705a11fb2fd81d6925829164736f6c63430008040033697066733a2f2f516d656e594e4b636b42436e6b7938393136514c334c766174346f453646643861565a4e735a356e4435417661502f",
  "linkReferences": {},
  "deployedLinkReferences": {}
}