{
  "_format": "hh-sol-artifact-1",
  "contractName": "DexBattle",
  "sourceName": "contracts/DexBattle.sol",
  "abi": [
    {
      "inputs": [],
      "stateMutability": "nonpayable",
      "type": "constructor"
    },
    {
      "anonymous": false,
      "inputs": [
        {
          "indexed": true,
          "internalType": "address",
          "name": "account",
          "type": "address"
        },
        {
          "indexed": true,
          "internalType": "address",
          "name": "operator",
          "type": "address"
        },
        {
          "indexed": false,
          "internalType": "bool",
          "name": "approved",
          "type": "bool"
        }
      ],
      "name": "ApprovalForAll",
      "type": "event"
    },
    {
      "anonymous": false,
      "inputs": [
        {
          "indexed": true,
          "internalType": "address",
          "name": "previousOwner",
          "type": "address"
        },
        {
          "indexed": true,
          "internalType": "address",
          "name": "newOwner",
          "type": "address"
        }
      ],
      "name": "OwnershipTransferred",
      "type": "event"
    },
    {
      "anonymous": false,
      "inputs": [
        {
          "indexed": false,
          "internalType": "address",
          "name": "account",
          "type": "address"
        }
      ],
      "name": "Paused",
      "type": "event"
    },
    {
      "anonymous": false,
      "inputs": [
        {
          "indexed": true,
          "internalType": "address",
          "name": "operator",
          "type": "address"
        },
        {
          "indexed": true,
          "internalType": "address",
          "name": "from",
          "type": "address"
        },
        {
          "indexed": true,
          "internalType": "address",
          "name": "to",
          "type": "address"
        },
        {
          "indexed": false,
          "internalType": "uint256[]",
          "name": "ids",
          "type": "uint256[]"
        },
        {
          "indexed": false,
          "internalType": "uint256[]",
          "name": "values",
          "type": "uint256[]"
        }
      ],
      "name": "TransferBatch",
      "type": "event"
    },
    {
      "anonymous": false,
      "inputs": [
        {
          "indexed": true,
          "internalType": "address",
          "name": "operator",
          "type": "address"
        },
        {
          "indexed": true,
          "internalType": "address",
          "name": "from",
          "type": "address"
        },
        {
          "indexed": true,
          "internalType": "address",
          "name": "to",
          "type": "address"
        },
        {
          "indexed": false,
          "internalType": "uint256",
          "name": "id",
          "type": "uint256"
        },
        {
          "indexed": false,
          "internalType": "uint256",
          "name": "value",
          "type": "uint256"
        }
      ],
      "name": "TransferSingle",
      "type": "event"
    },
    {
      "anonymous": false,
      "inputs": [
        {
          "indexed": false,
          "internalType": "string",
          "name": "value",
          "type": "string"
        },
        {
          "indexed": true,
          "internalType": "uint256",
          "name": "id",
          "type": "uint256"
        }
      ],
      "name": "URI",
      "type": "event"
    },
    {
      "anonymous": false,
      "inputs": [
        {
          "indexed": false,
          "internalType": "address",
          "name": "account",
          "type": "address"
        }
      ],
      "name": "Unpaused",
      "type": "event"
    },
    {
      "inputs": [],
      "name": "Common_items_cost",
      "outputs": [
        {
          "internalType": "uint256",
          "name": "",
          "type": "uint256"
        }
      ],
      "stateMutability": "view",
      "type": "function"
    },
    {
      "inputs": [],
      "name": "Epic_items_cost",
      "outputs": [
        {
          "internalType": "uint256",
          "name": "",
          "type": "uint256"
        }
      ],
      "stateMutability": "view",
      "type": "function"
    },
    {
      "inputs": [],
      "name": "Leader_items_cost",
      "outputs": [
        {
          "internalType": "uint256",
          "name": "",
          "type": "uint256"
        }
      ],
      "stateMutability": "view",
      "type": "function"
    },
    {
      "inputs": [],
      "name": "Legendary_items_cost",
      "outputs": [
        {
          "internalType": "uint256",
          "name": "",
          "type": "uint256"
        }
      ],
      "stateMutability": "view",
      "type": "function"
    },
    {
      "inputs": [],
      "name": "Rare_items_cost",
      "outputs": [
        {
          "internalType": "uint256",
          "name": "",
          "type": "uint256"
        }
      ],
      "stateMutability": "view",
      "type": "function"
    },
    {
      "inputs": [],
      "name": "Uncommon_items_cost",
      "outputs": [
        {
          "internalType": "uint256",
          "name": "",
          "type": "uint256"
        }
      ],
      "stateMutability": "view",
      "type": "function"
    },
    {
      "inputs": [
        {
          "internalType": "address",
          "name": "account",
          "type": "address"
        },
        {
          "internalType": "uint256",
          "name": "id",
          "type": "uint256"
        }
      ],
      "name": "balanceOf",
      "outputs": [
        {
          "internalType": "uint256",
          "name": "",
          "type": "uint256"
        }
      ],
      "stateMutability": "view",
      "type": "function"
    },
    {
      "inputs": [
        {
          "internalType": "address[]",
          "name": "accounts",
          "type": "address[]"
        },
        {
          "internalType": "uint256[]",
          "name": "ids",
          "type": "uint256[]"
        }
      ],
      "name": "balanceOfBatch",
      "outputs": [
        {
          "internalType": "uint256[]",
          "name": "",
          "type": "uint256[]"
        }
      ],
      "stateMutability": "view",
      "type": "function"
    },
    {
      "inputs": [
        {
          "internalType": "uint256",
          "name": "id",
          "type": "uint256"
        }
      ],
      "name": "exists",
      "outputs": [
        {
          "internalType": "bool",
          "name": "",
          "type": "bool"
        }
      ],
      "stateMutability": "view",
      "type": "function"
    },
    {
      "inputs": [
        {
          "internalType": "address",
          "name": "account",
          "type": "address"
        },
        {
          "internalType": "address",
          "name": "operator",
          "type": "address"
        }
      ],
      "name": "isApprovedForAll",
      "outputs": [
        {
          "internalType": "bool",
          "name": "",
          "type": "bool"
        }
      ],
      "stateMutability": "view",
      "type": "function"
    },
    {
      "inputs": [],
      "name": "maxCommonSupply",
      "outputs": [
        {
          "internalType": "uint256",
          "name": "",
          "type": "uint256"
        }
      ],
      "stateMutability": "view",
      "type": "function"
    },
    {
      "inputs": [],
      "name": "maxEpicSupply",
      "outputs": [
        {
          "internalType": "uint256",
          "name": "",
          "type": "uint256"
        }
      ],
      "stateMutability": "view",
      "type": "function"
    },
    {
      "inputs": [],
      "name": "maxLeaderSupply",
      "outputs": [
        {
          "internalType": "uint256",
          "name": "",
          "type": "uint256"
        }
      ],
      "stateMutability": "view",
      "type": "function"
    },
    {
      "inputs": [],
      "name": "maxLegendarySupply",
      "outputs": [
        {
          "internalType": "uint256",
          "name": "",
          "type": "uint256"
        }
      ],
      "stateMutability": "view",
      "type": "function"
    },
    {
      "inputs": [],
      "name": "maxRareSupply",
      "outputs": [
        {
          "internalType": "uint256",
          "name": "",
          "type": "uint256"
        }
      ],
      "stateMutability": "view",
      "type": "function"
    },
    {
      "inputs": [],
      "name": "maxUncommonSupply",
      "outputs": [
        {
          "internalType": "uint256",
          "name": "",
          "type": "uint256"
        }
      ],
      "stateMutability": "view",
      "type": "function"
    },
    {
      "inputs": [
        {
          "internalType": "uint256",
          "name": "id",
          "type": "uint256"
        }
      ],
      "name": "mint",
      "outputs": [],
      "stateMutability": "payable",
      "type": "function"
    },
    {
      "inputs": [],
      "name": "owner",
      "outputs": [
        {
          "internalType": "address",
          "name": "",
          "type": "address"
        }
      ],
      "stateMutability": "view",
      "type": "function"
    },
    {
      "inputs": [],
      "name": "pause",
      "outputs": [],
      "stateMutability": "nonpayable",
      "type": "function"
    },
    {
      "inputs": [],
      "name": "paused",
      "outputs": [
        {
          "internalType": "bool",
          "name": "",
          "type": "bool"
        }
      ],
      "stateMutability": "view",
      "type": "function"
    },
    {
      "inputs": [],
      "name": "renounceOwnership",
      "outputs": [],
      "stateMutability": "nonpayable",
      "type": "function"
    },
    {
      "inputs": [
        {
          "internalType": "address",
          "name": "from",
          "type": "address"
        },
        {
          "internalType": "address",
          "name": "to",
          "type": "address"
        },
        {
          "internalType": "uint256[]",
          "name": "ids",
          "type": "uint256[]"
        },
        {
          "internalType": "uint256[]",
          "name": "amounts",
          "type": "uint256[]"
        },
        {
          "internalType": "bytes",
          "name": "data",
          "type": "bytes"
        }
      ],
      "name": "safeBatchTransferFrom",
      "outputs": [],
      "stateMutability": "nonpayable",
      "type": "function"
    },
    {
      "inputs": [
        {
          "internalType": "address",
          "name": "from",
          "type": "address"
        },
        {
          "internalType": "address",
          "name": "to",
          "type": "address"
        },
        {
          "internalType": "uint256",
          "name": "id",
          "type": "uint256"
        },
        {
          "internalType": "uint256",
          "name": "amount",
          "type": "uint256"
        },
        {
          "internalType": "bytes",
          "name": "data",
          "type": "bytes"
        }
      ],
      "name": "safeTransferFrom",
      "outputs": [],
      "stateMutability": "nonpayable",
      "type": "function"
    },
    {
      "inputs": [
        {
          "internalType": "address",
          "name": "operator",
          "type": "address"
        },
        {
          "internalType": "bool",
          "name": "approved",
          "type": "bool"
        }
      ],
      "name": "setApprovalForAll",
      "outputs": [],
      "stateMutability": "nonpayable",
      "type": "function"
    },
    {
      "inputs": [
        {
          "internalType": "uint256",
          "name": "_newsupply",
          "type": "uint256"
        }
      ],
      "name": "setMaxCommonSupply",
      "outputs": [],
      "stateMutability": "nonpayable",
      "type": "function"
    },
    {
      "inputs": [
        {
          "internalType": "uint256",
          "name": "_newsupply",
          "type": "uint256"
        }
      ],
      "name": "setMaxEpicSupply",
      "outputs": [],
      "stateMutability": "nonpayable",
      "type": "function"
    },
    {
      "inputs": [
        {
          "internalType": "uint256",
          "name": "_newsupply",
          "type": "uint256"
        }
      ],
      "name": "setMaxLegendarySupply",
      "outputs": [],
      "stateMutability": "nonpayable",
      "type": "function"
    },
    {
      "inputs": [
        {
          "internalType": "uint256",
          "name": "_newsupply",
          "type": "uint256"
        }
      ],
      "name": "setMaxRareSupply",
      "outputs": [],
      "stateMutability": "nonpayable",
      "type": "function"
    },
    {
      "inputs": [
        {
          "internalType": "uint256",
          "name": "_newsupply",
          "type": "uint256"
        }
      ],
      "name": "setMaxUncommonSupply",
      "outputs": [],
      "stateMutability": "nonpayable",
      "type": "function"
    },
    {
      "inputs": [
        {
          "internalType": "uint256",
          "name": "_newsupply",
          "type": "uint256"
        }
      ],
      "name": "setMaxleaderSupply",
      "outputs": [],
      "stateMutability": "nonpayable",
      "type": "function"
    },
    {
      "inputs": [
        {
          "internalType": "string",
          "name": "newuri",
          "type": "string"
        }
      ],
      "name": "setURI",
      "outputs": [],
      "stateMutability": "nonpayable",
      "type": "function"
    },
    {
      "inputs": [
        {
          "internalType": "uint256",
          "name": "_newcost",
          "type": "uint256"
        }
      ],
      "name": "set_Common_items_cost",
      "outputs": [],
      "stateMutability": "nonpayable",
      "type": "function"
    },
    {
      "inputs": [
        {
          "internalType": "uint256",
          "name": "_newcost",
          "type": "uint256"
        }
      ],
      "name": "set_Epic_items_cost",
      "outputs": [],
      "stateMutability": "nonpayable",
      "type": "function"
    },
    {
      "inputs": [
        {
          "internalType": "uint256",
          "name": "_newcost",
          "type": "uint256"
        }
      ],
      "name": "set_Leader_items_cost",
      "outputs": [],
      "stateMutability": "nonpayable",
      "type": "function"
    },
    {
      "inputs": [
        {
          "internalType": "uint256",
          "name": "_newcost",
          "type": "uint256"
        }
      ],
      "name": "set_Legendary_items_cost",
      "outputs": [],
      "stateMutability": "nonpayable",
      "type": "function"
    },
    {
      "inputs": [
        {
          "internalType": "uint256",
          "name": "_newcost",
          "type": "uint256"
        }
      ],
      "name": "set_Rare_items_cost",
      "outputs": [],
      "stateMutability": "nonpayable",
      "type": "function"
    },
    {
      "inputs": [
        {
          "internalType": "uint256",
          "name": "_newcost",
          "type": "uint256"
        }
      ],
      "name": "set_Uncommon_items_cost",
      "outputs": [],
      "stateMutability": "nonpayable",
      "type": "function"
    },
    {
      "inputs": [
        {
          "internalType": "bytes4",
          "name": "interfaceId",
          "type": "bytes4"
        }
      ],
      "name": "supportsInterface",
      "outputs": [
        {
          "internalType": "bool",
          "name": "",
          "type": "bool"
        }
      ],
      "stateMutability": "view",
      "type": "function"
    },
    {
      "inputs": [
        {
          "internalType": "uint256",
          "name": "id",
          "type": "uint256"
        }
      ],
      "name": "totalSupply",
      "outputs": [
        {
          "internalType": "uint256",
          "name": "",
          "type": "uint256"
        }
      ],
      "stateMutability": "view",
      "type": "function"
    },
    {
      "inputs": [
        {
          "internalType": "address",
          "name": "newOwner",
          "type": "address"
        }
      ],
      "name": "transferOwnership",
      "outputs": [],
      "stateMutability": "nonpayable",
      "type": "function"
    },
    {
      "inputs": [],
      "name": "unpause",
      "outputs": [],
      "stateMutability": "nonpayable",
      "type": "function"
    },
    {
      "inputs": [
        {
          "internalType": "uint256",
          "name": "_id",
          "type": "uint256"
        }
      ],
      "name": "uri",
      "outputs": [
        {
          "internalType": "string",
          "name": "",
          "type": "string"
        }
      ],
      "stateMutability": "view",
      "type": "function"
    },
    {
      "inputs": [],
      "name": "withdraw",
      "outputs": [],
      "stateMutability": "payable",
      "type": "function"
    }
  ],
  "bytecode": "0x60806040526019600555609660065560fa60075561015e6008556101906009556101f4600a556729a2241af62c0000600b55670de0b6b3a7640000600c556706f05b59d3b20000600d5567016345785d8a0000600e5566b1a2bc2ec50000600f55662386f26fc100006010553480156200007857600080fd5b506040518060600160405280603681526020016200274e603691396200009e81620000bd565b50620000aa33620000d6565b6003805460ff60a01b191690556200020b565b8051620000d290600290602084019062000128565b5050565b600380546001600160a01b038381166001600160a01b0319831681179093556040519116919082907f8be0079c531659141344cd1fd0a4f28419497f9722a3daafe3b4186f6b6457e090600090a35050565b8280546200013690620001ce565b90600052602060002090601f0160209004810192826200015a5760008555620001a5565b82601f106200017557805160ff1916838001178555620001a5565b82800160010185558215620001a5579182015b82811115620001a557825182559160200191906001019062000188565b50620001b3929150620001b7565b5090565b5b80821115620001b35760008155600101620001b8565b600181811c90821680620001e357607f821691505b602082108114156200020557634e487b7160e01b600052602260045260246000fd5b50919050565b612533806200021b6000396000f3fe60806040526004361061025b5760003560e01c80638d61e9f111610144578063bf7ee4a5116100b6578063da248c4b1161007a578063da248c4b146106ae578063dd6f1752146106ce578063e985e9c5146106e4578063f242432a1461072d578063f2fde38b1461074d578063fad078df1461076d57600080fd5b8063bf7ee4a514610636578063c8eb86c81461064c578063ca5605b314610662578063ce1d91f414610678578063d02439fe1461069857600080fd5b8063ab24834811610108578063ab24834814610573578063aeb8062114610589578063b78a5d77146105a9578063b7e2698d146105c9578063b7f24320146105e9578063bd85b0391461060957600080fd5b80638d61e9f1146104e25780638da5cb5b146105025780639a41aa731461052a578063a0712d6814610540578063a22cb4651461055357600080fd5b80633f4ba83a116101dd5780635c774f03116101a15780635c774f03146104395780635c975abb146104595780636687152014610478578063715018a6146104985780637814308b146104ad5780638456cb59146104cd57600080fd5b80633f4ba83a1461039c57806340624b79146103b15780634e1273f4146103c75780634f558e79146103f4578063559c039a1461042357600080fd5b806325ba5f561161022457806325ba5f56146103325780632eb2c2d6146103485780633235d397146103685780633ba09b9e1461037e5780633ccfd60b1461039457600080fd5b8062fdd58e1461026057806301ffc9a71461029357806302fe5305146102c35780630e89341c146102e55780631e6b8b8214610312575b600080fd5b34801561026c57600080fd5b5061028061027b366004611ed7565b61078d565b6040519081526020015b60405180910390f35b34801561029f57600080fd5b506102b36102ae366004611fcb565b610823565b604051901515815260200161028a565b3480156102cf57600080fd5b506102e36102de366004612003565b610875565b005b3480156102f157600080fd5b50610305610300366004612051565b610889565b60405161028a91906121f2565b34801561031e57600080fd5b506102e361032d366004612051565b610920565b34801561033e57600080fd5b5061028060085481565b34801561035457600080fd5b506102e3610363366004611d94565b61092d565b34801561037457600080fd5b5061028060055481565b34801561038a57600080fd5b5061028060075481565b6102e3610979565b3480156103a857600080fd5b506102e36109d6565b3480156103bd57600080fd5b50610280600d5481565b3480156103d357600080fd5b506103e76103e2366004611f00565b6109e8565b60405161028a91906121b1565b34801561040057600080fd5b506102b361040f366004612051565b600090815260046020526040902054151590565b34801561042f57600080fd5b5061028060095481565b34801561044557600080fd5b506102e3610454366004612051565b610b4a565b34801561046557600080fd5b50600354600160a01b900460ff166102b3565b34801561048457600080fd5b506102e3610493366004612051565b610b57565b3480156104a457600080fd5b506102e3610b64565b3480156104b957600080fd5b506102e36104c8366004612051565b610b76565b3480156104d957600080fd5b506102e3610b83565b3480156104ee57600080fd5b506102e36104fd366004612051565b610b93565b34801561050e57600080fd5b506003546040516001600160a01b03909116815260200161028a565b34801561053657600080fd5b50610280600b5481565b6102e361054e366004612051565b610ba0565b34801561055f57600080fd5b506102e361056e366004611e9d565b610cdb565b34801561057f57600080fd5b5061028060065481565b34801561059557600080fd5b506102e36105a4366004612051565b610cea565b3480156105b557600080fd5b506102e36105c4366004612051565b610cf7565b3480156105d557600080fd5b506102e36105e4366004612051565b610d04565b3480156105f557600080fd5b506102e3610604366004612051565b610d11565b34801561061557600080fd5b50610280610624366004612051565b60009081526004602052604090205490565b34801561064257600080fd5b5061028060105481565b34801561065857600080fd5b50610280600e5481565b34801561066e57600080fd5b50610280600f5481565b34801561068457600080fd5b506102e3610693366004612051565b610d1e565b3480156106a457600080fd5b50610280600c5481565b3480156106ba57600080fd5b506102e36106c9366004612051565b610d2b565b3480156106da57600080fd5b50610280600a5481565b3480156106f057600080fd5b506102b36106ff366004611d62565b6001600160a01b03918216600090815260016020908152604080832093909416825291909152205460ff1690565b34801561073957600080fd5b506102e3610748366004611e3a565b610d38565b34801561075957600080fd5b506102e3610768366004611d48565b610d7d565b34801561077957600080fd5b506102e3610788366004612051565b610df3565b60006001600160a01b0383166107fd5760405162461bcd60e51b815260206004820152602a60248201527f455243313135353a2061646472657373207a65726f206973206e6f742061207660448201526930b634b21037bbb732b960b11b60648201526084015b60405180910390fd5b506000908152602081815260408083206001600160a01b03949094168352929052205490565b60006001600160e01b03198216636cdb3d1360e11b148061085457506001600160e01b031982166303a24d0760e21b145b8061086f57506301ffc9a760e01b6001600160e01b03198316145b92915050565b61087d610e00565b61088681610e5a565b50565b6000818152600460205260409020546060906108e75760405162461bcd60e51b815260206004820152601860248201527f5552493a20746f6b656e20646f65736e2774206578697374000000000000000060448201526064016107f4565b6108f082610e6d565b6108f983610f01565b60405160200161090a9291906120cf565b6040516020818303038152906040529050919050565b610928610e00565b600555565b6001600160a01b038516331480610949575061094985336106ff565b6109655760405162461bcd60e51b81526004016107f49061224d565b6109728585858585610fa4565b5050505050565b610981610e00565b604051600090339047908381818185875af1925050503d80600081146109c3576040519150601f19603f3d011682016040523d82523d6000602084013e6109c8565b606091505b505090508061088657600080fd5b6109de610e00565b6109e66111ab565b565b60608151835114610a4d5760405162461bcd60e51b815260206004820152602960248201527f455243313135353a206163636f756e747320616e6420696473206c656e677468604482015268040dad2e6dac2e8c6d60bb1b60648201526084016107f4565b6000835167ffffffffffffffff811115610a7757634e487b7160e01b600052604160045260246000fd5b604051908082528060200260200182016040528015610aa0578160200160208202803683370190505b50905060005b8451811015610b4257610b07858281518110610ad257634e487b7160e01b600052603260045260246000fd5b6020026020010151858381518110610afa57634e487b7160e01b600052603260045260246000fd5b602002602001015161078d565b828281518110610b2757634e487b7160e01b600052603260045260246000fd5b6020908102919091010152610b3b816123fe565b9050610aa6565b509392505050565b610b52610e00565b600b55565b610b5f610e00565b600655565b610b6c610e00565b6109e66000611200565b610b7e610e00565b600f55565b610b8b610e00565b6109e6611252565b610b9b610e00565b600d55565b60808110610bb957600654601155600c54601255610c2a565b60638110610bd257600754601155600d54601255610c2a565b60408110610beb57600854601155600e54601255610c2a565b60258110610c0457600954601155600f54601255610c2a565b600a8110610c1d57600a54601155601054601255610c2a565b600554601155600b546012555b6011546000828152600460205260409020541115610c775760405162461bcd60e51b815260206004820152600a60248201526915d9481cdbdb191bdd5d60b21b60448201526064016107f4565b601254341015610cbf5760405162461bcd60e51b8152602060048201526013602482015272139bdd08195b9bdd59da08189b98881cd95b9d606a1b60448201526064016107f4565b6108863382600160405180602001604052806000815250611295565b610ce63383836113b8565b5050565b610cf2610e00565b600955565b610cff610e00565b600e55565b610d0c610e00565b600a55565b610d19610e00565b600855565b610d26610e00565b600c55565b610d33610e00565b601055565b6001600160a01b038516331480610d545750610d5485336106ff565b610d705760405162461bcd60e51b81526004016107f49061224d565b6109728585858585611499565b610d85610e00565b6001600160a01b038116610dea5760405162461bcd60e51b815260206004820152602660248201527f4f776e61626c653a206e6577206f776e657220697320746865207a65726f206160448201526564647265737360d01b60648201526084016107f4565b61088681611200565b610dfb610e00565b600755565b6003546001600160a01b031633146109e65760405162461bcd60e51b815260206004820181905260248201527f4f776e61626c653a2063616c6c6572206973206e6f7420746865206f776e657260448201526064016107f4565b8051610ce6906002906020840190611b9b565b606060028054610e7c90612396565b80601f0160208091040260200160405190810160405280929190818152602001828054610ea890612396565b8015610ef55780601f10610eca57610100808354040283529160200191610ef5565b820191906000526020600020905b815481529060010190602001808311610ed857829003601f168201915b50505050509050919050565b60606000610f0e836115d1565b600101905060008167ffffffffffffffff811115610f3c57634e487b7160e01b600052604160045260246000fd5b6040519080825280601f01601f191660200182016040528015610f66576020820181803683370190505b5090508181016020015b600019016f181899199a1a9b1b9c1cb0b131b232b360811b600a86061a8153600a8504945084610f9f57610b42565b610f70565b81518351146110065760405162461bcd60e51b815260206004820152602860248201527f455243313135353a2069647320616e6420616d6f756e7473206c656e677468206044820152670dad2e6dac2e8c6d60c31b60648201526084016107f4565b6001600160a01b03841661102c5760405162461bcd60e51b81526004016107f49061229b565b3361103b8187878787876116a9565b60005b845181101561113d57600085828151811061106957634e487b7160e01b600052603260045260246000fd5b60200260200101519050600085838151811061109557634e487b7160e01b600052603260045260246000fd5b602090810291909101810151600084815280835260408082206001600160a01b038e1683529093529190912054909150818110156110e55760405162461bcd60e51b81526004016107f4906122e0565b6000838152602081815260408083206001600160a01b038e8116855292528083208585039055908b1682528120805484929061112290849061234e565b9250508190555050505080611136906123fe565b905061103e565b50846001600160a01b0316866001600160a01b0316826001600160a01b03167f4a39dc06d4c0dbc64b70af90fd698a233a518aa5d07e595d983b8c0526c8f7fb878760405161118d9291906121c4565b60405180910390a46111a38187878787876116bf565b505050505050565b6111b361182a565b6003805460ff60a01b191690557f5db9ee0a495bf2e6ff9c91a7834c1ba4fdd244a5e8aa4e537bd38aeae4b073aa335b6040516001600160a01b03909116815260200160405180910390a1565b600380546001600160a01b038381166001600160a01b0319831681179093556040519116919082907f8be0079c531659141344cd1fd0a4f28419497f9722a3daafe3b4186f6b6457e090600090a35050565b61125a61187a565b6003805460ff60a01b1916600160a01b1790557f62e78cea01bee320cd4e420270b5ea74000d11b0c9f74754ebdbfc544b05a2586111e33390565b6001600160a01b0384166112f55760405162461bcd60e51b815260206004820152602160248201527f455243313135353a206d696e7420746f20746865207a65726f206164647265736044820152607360f81b60648201526084016107f4565b336000611301856118c7565b9050600061130e856118c7565b905061131f836000898585896116a9565b6000868152602081815260408083206001600160a01b038b1684529091528120805487929061134f90849061234e565b909155505060408051878152602081018790526001600160a01b03808a1692600092918716917fc3d58168c5ae7397731d063d5bbf3d657854427343f4c083240f7aacaa2d0f62910160405180910390a46113af83600089898989611920565b50505050505050565b816001600160a01b0316836001600160a01b0316141561142c5760405162461bcd60e51b815260206004820152602960248201527f455243313135353a2073657474696e6720617070726f76616c20737461747573604482015268103337b91039b2b63360b91b60648201526084016107f4565b6001600160a01b03838116600081815260016020908152604080832094871680845294825291829020805460ff191686151590811790915591519182527f17307eab39ab6107e8899845ad3d59bd9653f200f220920489ca2b5937696c31910160405180910390a3505050565b6001600160a01b0384166114bf5760405162461bcd60e51b81526004016107f49061229b565b3360006114cb856118c7565b905060006114d8856118c7565b90506114e88389898585896116a9565b6000868152602081815260408083206001600160a01b038c168452909152902054858110156115295760405162461bcd60e51b81526004016107f4906122e0565b6000878152602081815260408083206001600160a01b038d8116855292528083208985039055908a1682528120805488929061156690849061234e565b909155505060408051888152602081018890526001600160a01b03808b16928c821692918816917fc3d58168c5ae7397731d063d5bbf3d657854427343f4c083240f7aacaa2d0f62910160405180910390a46115c6848a8a8a8a8a611920565b505050505050505050565b60008072184f03e93ff9f4daa797ed6e38ed64bf6a1f0160401b83106116105772184f03e93ff9f4daa797ed6e38ed64bf6a1f0160401b830492506040015b6d04ee2d6d415b85acef8100000000831061163c576d04ee2d6d415b85acef8100000000830492506020015b662386f26fc10000831061165a57662386f26fc10000830492506010015b6305f5e1008310611672576305f5e100830492506008015b612710831061168657612710830492506004015b60648310611698576064830492506002015b600a831061086f5760010192915050565b6116b161187a565b6111a38686868686866119ea565b6001600160a01b0384163b156111a35760405163bc197c8160e01b81526001600160a01b0385169063bc197c8190611703908990899088908890889060040161210e565b602060405180830381600087803b15801561171d57600080fd5b505af192505050801561174d575060408051601f3d908101601f1916820190925261174a91810190611fe7565b60015b6117fa57611759612445565b806308c379a01415611793575061176e61245d565b806117795750611795565b8060405162461bcd60e51b81526004016107f491906121f2565b505b60405162461bcd60e51b815260206004820152603460248201527f455243313135353a207472616e7366657220746f206e6f6e2d455243313135356044820152732932b1b2b4bb32b91034b6b83632b6b2b73a32b960611b60648201526084016107f4565b6001600160e01b0319811663bc197c8160e01b146113af5760405162461bcd60e51b81526004016107f490612205565b600354600160a01b900460ff166109e65760405162461bcd60e51b815260206004820152601460248201527314185d5cd8589b194e881b9bdd081c185d5cd95960621b60448201526064016107f4565b600354600160a01b900460ff16156109e65760405162461bcd60e51b815260206004820152601060248201526f14185d5cd8589b194e881c185d5cd95960821b60448201526064016107f4565b6040805160018082528183019092526060916000919060208083019080368337019050509050828160008151811061190f57634e487b7160e01b600052603260045260246000fd5b602090810291909101015292915050565b6001600160a01b0384163b156111a35760405163f23a6e6160e01b81526001600160a01b0385169063f23a6e6190611964908990899088908890889060040161216c565b602060405180830381600087803b15801561197e57600080fd5b505af19250505080156119ae575060408051601f3d908101601f191682019092526119ab91810190611fe7565b60015b6119ba57611759612445565b6001600160e01b0319811663f23a6e6160e01b146113af5760405162461bcd60e51b81526004016107f490612205565b6001600160a01b038516611a8d5760005b8351811015611a8b57828181518110611a2457634e487b7160e01b600052603260045260246000fd5b602002602001015160046000868481518110611a5057634e487b7160e01b600052603260045260246000fd5b602002602001015181526020019081526020016000206000828254611a75919061234e565b90915550611a849050816123fe565b90506119fb565b505b6001600160a01b0384166111a35760005b83518110156113af576000848281518110611ac957634e487b7160e01b600052603260045260246000fd5b602002602001015190506000848381518110611af557634e487b7160e01b600052603260045260246000fd5b6020026020010151905060006004600084815260200190815260200160002054905081811015611b785760405162461bcd60e51b815260206004820152602860248201527f455243313135353a206275726e20616d6f756e74206578636565647320746f74604482015267616c537570706c7960c01b60648201526084016107f4565b60009283526004602052604090922091039055611b94816123fe565b9050611a9e565b828054611ba790612396565b90600052602060002090601f016020900481019282611bc95760008555611c0f565b82601f10611be257805160ff1916838001178555611c0f565b82800160010185558215611c0f579182015b82811115611c0f578251825591602001919060010190611bf4565b50611c1b929150611c1f565b5090565b5b80821115611c1b5760008155600101611c20565b600067ffffffffffffffff831115611c4e57611c4e61242f565b604051611c65601f8501601f1916602001826123d1565b809150838152848484011115611c7a57600080fd5b83836020830137600060208583010152509392505050565b80356001600160a01b0381168114611ca957600080fd5b919050565b600082601f830112611cbe578081fd5b81356020611ccb8261232a565b604051611cd882826123d1565b8381528281019150858301600585901b87018401881015611cf7578586fd5b855b85811015611d1557813584529284019290840190600101611cf9565b5090979650505050505050565b600082601f830112611d32578081fd5b611d4183833560208501611c34565b9392505050565b600060208284031215611d59578081fd5b611d4182611c92565b60008060408385031215611d74578081fd5b611d7d83611c92565b9150611d8b60208401611c92565b90509250929050565b600080600080600060a08688031215611dab578081fd5b611db486611c92565b9450611dc260208701611c92565b9350604086013567ffffffffffffffff80821115611dde578283fd5b611dea89838a01611cae565b94506060880135915080821115611dff578283fd5b611e0b89838a01611cae565b93506080880135915080821115611e20578283fd5b50611e2d88828901611d22565b9150509295509295909350565b600080600080600060a08688031215611e51578081fd5b611e5a86611c92565b9450611e6860208701611c92565b93506040860135925060608601359150608086013567ffffffffffffffff811115611e91578182fd5b611e2d88828901611d22565b60008060408385031215611eaf578182fd5b611eb883611c92565b915060208301358015158114611ecc578182fd5b809150509250929050565b60008060408385031215611ee9578182fd5b611ef283611c92565b946020939093013593505050565b60008060408385031215611f12578182fd5b823567ffffffffffffffff80821115611f29578384fd5b818501915085601f830112611f3c578384fd5b81356020611f498261232a565b604051611f5682826123d1565b8381528281019150858301600585901b870184018b1015611f75578889fd5b8896505b84871015611f9e57611f8a81611c92565b835260019690960195918301918301611f79565b5096505086013592505080821115611fb4578283fd5b50611fc185828601611cae565b9150509250929050565b600060208284031215611fdc578081fd5b8135611d41816124e7565b600060208284031215611ff8578081fd5b8151611d41816124e7565b600060208284031215612014578081fd5b813567ffffffffffffffff81111561202a578182fd5b8201601f8101841361203a578182fd5b61204984823560208401611c34565b949350505050565b600060208284031215612062578081fd5b5035919050565b6000815180845260208085019450808401835b838110156120985781518752958201959082019060010161207c565b509495945050505050565b600081518084526120bb816020860160208601612366565b601f01601f19169290920160200192915050565b600083516120e1818460208801612366565b8351908301906120f5818360208801612366565b64173539b7b760d91b9101908152600501949350505050565b6001600160a01b0386811682528516602082015260a06040820181905260009061213a90830186612069565b828103606084015261214c8186612069565b9050828103608084015261216081856120a3565b98975050505050505050565b6001600160a01b03868116825285166020820152604081018490526060810183905260a0608082018190526000906121a6908301846120a3565b979650505050505050565b602081526000611d416020830184612069565b6040815260006121d76040830185612069565b82810360208401526121e98185612069565b95945050505050565b602081526000611d4160208301846120a3565b60208082526028908201527f455243313135353a204552433131353552656365697665722072656a656374656040820152676420746f6b656e7360c01b606082015260800190565b6020808252602e908201527f455243313135353a2063616c6c6572206973206e6f7420746f6b656e206f776e60408201526d195c881bdc88185c1c1c9bdd995960921b606082015260800190565b60208082526025908201527f455243313135353a207472616e7366657220746f20746865207a65726f206164604082015264647265737360d81b606082015260800190565b6020808252602a908201527f455243313135353a20696e73756666696369656e742062616c616e636520666f60408201526939103a3930b739b332b960b11b606082015260800190565b600067ffffffffffffffff8211156123445761234461242f565b5060051b60200190565b6000821982111561236157612361612419565b500190565b60005b83811015612381578181015183820152602001612369565b83811115612390576000848401525b50505050565b600181811c908216806123aa57607f821691505b602082108114156123cb57634e487b7160e01b600052602260045260246000fd5b50919050565b601f8201601f1916810167ffffffffffffffff811182821017156123f7576123f761242f565b6040525050565b600060001982141561241257612412612419565b5060010190565b634e487b7160e01b600052601160045260246000fd5b634e487b7160e01b600052604160045260246000fd5b600060033d111561245a57600481823e5160e01c5b90565b600060443d101561246b5790565b6040516003193d81016004833e81513d67ffffffffffffffff816024840111818411171561249b57505050505090565b82850191508151818111156124b35750505050505090565b843d87010160208285010111156124cd5750505050505090565b6124dc602082860101876123d1565b509095945050505050565b6001600160e01b03198116811461088657600080fdfea2646970667358221220be540b3bdddc891a1716dbeed2cd822a15dc437b9d425b3cc5f8bd417f926c0764736f6c63430008040033697066733a2f2f516d5339685941414162536e697966554a4d78555a7650636d3169526b626d38726a4a6f444e445678756d31654e2f",
  "linkReferences": {},
  "deployedLinkReferences": {}
}