{
  "_format": "hh-sol-artifact-1",
  "contractName": "DexBattle",
  "sourceName": "contracts/DexBattle.sol",
  "abi": [
    {
      "inputs": [],
      "stateMutability": "nonpayable",
      "type": "constructor"
    },
    {
      "anonymous": false,
      "inputs": [
        {
          "indexed": true,
          "internalType": "address",
          "name": "account",
          "type": "address"
        },
        {
          "indexed": true,
          "internalType": "address",
          "name": "operator",
          "type": "address"
        },
        {
          "indexed": false,
          "internalType": "bool",
          "name": "approved",
          "type": "bool"
        }
      ],
      "name": "ApprovalForAll",
      "type": "event"
    },
    {
      "anonymous": false,
      "inputs": [
        {
          "indexed": true,
          "internalType": "address",
          "name": "previousOwner",
          "type": "address"
        },
        {
          "indexed": true,
          "internalType": "address",
          "name": "newOwner",
          "type": "address"
        }
      ],
      "name": "OwnershipTransferred",
      "type": "event"
    },
    {
      "anonymous": false,
      "inputs": [
        {
          "indexed": true,
          "internalType": "address",
          "name": "operator",
          "type": "address"
        },
        {
          "indexed": true,
          "internalType": "address",
          "name": "from",
          "type": "address"
        },
        {
          "indexed": true,
          "internalType": "address",
          "name": "to",
          "type": "address"
        },
        {
          "indexed": false,
          "internalType": "uint256[]",
          "name": "ids",
          "type": "uint256[]"
        },
        {
          "indexed": false,
          "internalType": "uint256[]",
          "name": "values",
          "type": "uint256[]"
        }
      ],
      "name": "TransferBatch",
      "type": "event"
    },
    {
      "anonymous": false,
      "inputs": [
        {
          "indexed": true,
          "internalType": "address",
          "name": "operator",
          "type": "address"
        },
        {
          "indexed": true,
          "internalType": "address",
          "name": "from",
          "type": "address"
        },
        {
          "indexed": true,
          "internalType": "address",
          "name": "to",
          "type": "address"
        },
        {
          "indexed": false,
          "internalType": "uint256",
          "name": "id",
          "type": "uint256"
        },
        {
          "indexed": false,
          "internalType": "uint256",
          "name": "value",
          "type": "uint256"
        }
      ],
      "name": "TransferSingle",
      "type": "event"
    },
    {
      "anonymous": false,
      "inputs": [
        {
          "indexed": false,
          "internalType": "string",
          "name": "value",
          "type": "string"
        },
        {
          "indexed": true,
          "internalType": "uint256",
          "name": "id",
          "type": "uint256"
        }
      ],
      "name": "URI",
      "type": "event"
    },
    {
      "inputs": [],
      "name": "Common_items_cost",
      "outputs": [
        {
          "internalType": "uint256",
          "name": "",
          "type": "uint256"
        }
      ],
      "stateMutability": "view",
      "type": "function"
    },
    {
      "inputs": [],
      "name": "Epic_items_cost",
      "outputs": [
        {
          "internalType": "uint256",
          "name": "",
          "type": "uint256"
        }
      ],
      "stateMutability": "view",
      "type": "function"
    },
    {
      "inputs": [],
      "name": "Leader_items_cost",
      "outputs": [
        {
          "internalType": "uint256",
          "name": "",
          "type": "uint256"
        }
      ],
      "stateMutability": "view",
      "type": "function"
    },
    {
      "inputs": [],
      "name": "Legendary_items_cost",
      "outputs": [
        {
          "internalType": "uint256",
          "name": "",
          "type": "uint256"
        }
      ],
      "stateMutability": "view",
      "type": "function"
    },
    {
      "inputs": [
        {
          "internalType": "bool",
          "name": "_state",
          "type": "bool"
        }
      ],
      "name": "Pause",
      "outputs": [],
      "stateMutability": "nonpayable",
      "type": "function"
    },
    {
      "inputs": [],
      "name": "Rare_items_cost",
      "outputs": [
        {
          "internalType": "uint256",
          "name": "",
          "type": "uint256"
        }
      ],
      "stateMutability": "view",
      "type": "function"
    },
    {
      "inputs": [],
      "name": "Uncommon_items_cost",
      "outputs": [
        {
          "internalType": "uint256",
          "name": "",
          "type": "uint256"
        }
      ],
      "stateMutability": "view",
      "type": "function"
    },
    {
      "inputs": [
        {
          "internalType": "address",
          "name": "account",
          "type": "address"
        },
        {
          "internalType": "uint256",
          "name": "id",
          "type": "uint256"
        }
      ],
      "name": "balanceOf",
      "outputs": [
        {
          "internalType": "uint256",
          "name": "",
          "type": "uint256"
        }
      ],
      "stateMutability": "view",
      "type": "function"
    },
    {
      "inputs": [
        {
          "internalType": "address[]",
          "name": "accounts",
          "type": "address[]"
        },
        {
          "internalType": "uint256[]",
          "name": "ids",
          "type": "uint256[]"
        }
      ],
      "name": "balanceOfBatch",
      "outputs": [
        {
          "internalType": "uint256[]",
          "name": "",
          "type": "uint256[]"
        }
      ],
      "stateMutability": "view",
      "type": "function"
    },
    {
      "inputs": [
        {
          "internalType": "uint256",
          "name": "id",
          "type": "uint256"
        }
      ],
      "name": "exists",
      "outputs": [
        {
          "internalType": "bool",
          "name": "",
          "type": "bool"
        }
      ],
      "stateMutability": "view",
      "type": "function"
    },
    {
      "inputs": [
        {
          "internalType": "address",
          "name": "account",
          "type": "address"
        },
        {
          "internalType": "address",
          "name": "operator",
          "type": "address"
        }
      ],
      "name": "isApprovedForAll",
      "outputs": [
        {
          "internalType": "bool",
          "name": "",
          "type": "bool"
        }
      ],
      "stateMutability": "view",
      "type": "function"
    },
    {
      "inputs": [],
      "name": "maxCommonSupply",
      "outputs": [
        {
          "internalType": "uint256",
          "name": "",
          "type": "uint256"
        }
      ],
      "stateMutability": "view",
      "type": "function"
    },
    {
      "inputs": [],
      "name": "maxEpicSupply",
      "outputs": [
        {
          "internalType": "uint256",
          "name": "",
          "type": "uint256"
        }
      ],
      "stateMutability": "view",
      "type": "function"
    },
    {
      "inputs": [],
      "name": "maxLeaderSupply",
      "outputs": [
        {
          "internalType": "uint256",
          "name": "",
          "type": "uint256"
        }
      ],
      "stateMutability": "view",
      "type": "function"
    },
    {
      "inputs": [],
      "name": "maxLegendarySupply",
      "outputs": [
        {
          "internalType": "uint256",
          "name": "",
          "type": "uint256"
        }
      ],
      "stateMutability": "view",
      "type": "function"
    },
    {
      "inputs": [],
      "name": "maxRareSupply",
      "outputs": [
        {
          "internalType": "uint256",
          "name": "",
          "type": "uint256"
        }
      ],
      "stateMutability": "view",
      "type": "function"
    },
    {
      "inputs": [],
      "name": "maxUncommonSupply",
      "outputs": [
        {
          "internalType": "uint256",
          "name": "",
          "type": "uint256"
        }
      ],
      "stateMutability": "view",
      "type": "function"
    },
    {
      "inputs": [
        {
          "internalType": "uint256",
          "name": "id",
          "type": "uint256"
        }
      ],
      "name": "mint",
      "outputs": [],
      "stateMutability": "payable",
      "type": "function"
    },
    {
      "inputs": [],
      "name": "owner",
      "outputs": [
        {
          "internalType": "address",
          "name": "",
          "type": "address"
        }
      ],
      "stateMutability": "view",
      "type": "function"
    },
    {
      "inputs": [
        {
          "internalType": "uint256",
          "name": "id",
          "type": "uint256"
        },
        {
          "internalType": "uint256",
          "name": "amounts",
          "type": "uint256"
        }
      ],
      "name": "ownerMint",
      "outputs": [],
      "stateMutability": "nonpayable",
      "type": "function"
    },
    {
      "inputs": [],
      "name": "paused",
      "outputs": [
        {
          "internalType": "bool",
          "name": "",
          "type": "bool"
        }
      ],
      "stateMutability": "view",
      "type": "function"
    },
    {
      "inputs": [],
      "name": "renounceOwnership",
      "outputs": [],
      "stateMutability": "nonpayable",
      "type": "function"
    },
    {
      "inputs": [
        {
          "internalType": "address",
          "name": "from",
          "type": "address"
        },
        {
          "internalType": "address",
          "name": "to",
          "type": "address"
        },
        {
          "internalType": "uint256[]",
          "name": "ids",
          "type": "uint256[]"
        },
        {
          "internalType": "uint256[]",
          "name": "amounts",
          "type": "uint256[]"
        },
        {
          "internalType": "bytes",
          "name": "data",
          "type": "bytes"
        }
      ],
      "name": "safeBatchTransferFrom",
      "outputs": [],
      "stateMutability": "nonpayable",
      "type": "function"
    },
    {
      "inputs": [
        {
          "internalType": "address",
          "name": "from",
          "type": "address"
        },
        {
          "internalType": "address",
          "name": "to",
          "type": "address"
        },
        {
          "internalType": "uint256",
          "name": "id",
          "type": "uint256"
        },
        {
          "internalType": "uint256",
          "name": "amount",
          "type": "uint256"
        },
        {
          "internalType": "bytes",
          "name": "data",
          "type": "bytes"
        }
      ],
      "name": "safeTransferFrom",
      "outputs": [],
      "stateMutability": "nonpayable",
      "type": "function"
    },
    {
      "inputs": [
        {
          "internalType": "address",
          "name": "operator",
          "type": "address"
        },
        {
          "internalType": "bool",
          "name": "approved",
          "type": "bool"
        }
      ],
      "name": "setApprovalForAll",
      "outputs": [],
      "stateMutability": "nonpayable",
      "type": "function"
    },
    {
      "inputs": [
        {
          "internalType": "uint256",
          "name": "_newsupply",
          "type": "uint256"
        }
      ],
      "name": "setMaxCommonSupply",
      "outputs": [],
      "stateMutability": "nonpayable",
      "type": "function"
    },
    {
      "inputs": [
        {
          "internalType": "uint256",
          "name": "_newsupply",
          "type": "uint256"
        }
      ],
      "name": "setMaxEpicSupply",
      "outputs": [],
      "stateMutability": "nonpayable",
      "type": "function"
    },
    {
      "inputs": [
        {
          "internalType": "uint256",
          "name": "_newsupply",
          "type": "uint256"
        }
      ],
      "name": "setMaxLegendarySupply",
      "outputs": [],
      "stateMutability": "nonpayable",
      "type": "function"
    },
    {
      "inputs": [
        {
          "internalType": "uint256",
          "name": "_newsupply",
          "type": "uint256"
        }
      ],
      "name": "setMaxRareSupply",
      "outputs": [],
      "stateMutability": "nonpayable",
      "type": "function"
    },
    {
      "inputs": [
        {
          "internalType": "uint256",
          "name": "_newsupply",
          "type": "uint256"
        }
      ],
      "name": "setMaxUncommonSupply",
      "outputs": [],
      "stateMutability": "nonpayable",
      "type": "function"
    },
    {
      "inputs": [
        {
          "internalType": "uint256",
          "name": "_newsupply",
          "type": "uint256"
        }
      ],
      "name": "setMaxleaderSupply",
      "outputs": [],
      "stateMutability": "nonpayable",
      "type": "function"
    },
    {
      "inputs": [
        {
          "internalType": "string",
          "name": "newuri",
          "type": "string"
        }
      ],
      "name": "setURI",
      "outputs": [],
      "stateMutability": "nonpayable",
      "type": "function"
    },
    {
      "inputs": [
        {
          "internalType": "uint256",
          "name": "_newcost",
          "type": "uint256"
        }
      ],
      "name": "set_Common_items_cost",
      "outputs": [],
      "stateMutability": "nonpayable",
      "type": "function"
    },
    {
      "inputs": [
        {
          "internalType": "uint256",
          "name": "_newcost",
          "type": "uint256"
        }
      ],
      "name": "set_Epic_items_cost",
      "outputs": [],
      "stateMutability": "nonpayable",
      "type": "function"
    },
    {
      "inputs": [
        {
          "internalType": "uint256",
          "name": "_newcost",
          "type": "uint256"
        }
      ],
      "name": "set_Leader_items_cost",
      "outputs": [],
      "stateMutability": "nonpayable",
      "type": "function"
    },
    {
      "inputs": [
        {
          "internalType": "uint256",
          "name": "_newcost",
          "type": "uint256"
        }
      ],
      "name": "set_Legendary_items_cost",
      "outputs": [],
      "stateMutability": "nonpayable",
      "type": "function"
    },
    {
      "inputs": [
        {
          "internalType": "uint256",
          "name": "_newcost",
          "type": "uint256"
        }
      ],
      "name": "set_Rare_items_cost",
      "outputs": [],
      "stateMutability": "nonpayable",
      "type": "function"
    },
    {
      "inputs": [
        {
          "internalType": "uint256",
          "name": "_newcost",
          "type": "uint256"
        }
      ],
      "name": "set_Uncommon_items_cost",
      "outputs": [],
      "stateMutability": "nonpayable",
      "type": "function"
    },
    {
      "inputs": [
        {
          "internalType": "bytes4",
          "name": "interfaceId",
          "type": "bytes4"
        }
      ],
      "name": "supportsInterface",
      "outputs": [
        {
          "internalType": "bool",
          "name": "",
          "type": "bool"
        }
      ],
      "stateMutability": "view",
      "type": "function"
    },
    {
      "inputs": [
        {
          "internalType": "uint256",
          "name": "id",
          "type": "uint256"
        }
      ],
      "name": "totalSupply",
      "outputs": [
        {
          "internalType": "uint256",
          "name": "",
          "type": "uint256"
        }
      ],
      "stateMutability": "view",
      "type": "function"
    },
    {
      "inputs": [
        {
          "internalType": "address",
          "name": "newOwner",
          "type": "address"
        }
      ],
      "name": "transferOwnership",
      "outputs": [],
      "stateMutability": "nonpayable",
      "type": "function"
    },
    {
      "inputs": [
        {
          "internalType": "uint256",
          "name": "_id",
          "type": "uint256"
        }
      ],
      "name": "uri",
      "outputs": [
        {
          "internalType": "string",
          "name": "",
          "type": "string"
        }
      ],
      "stateMutability": "view",
      "type": "function"
    },
    {
      "inputs": [],
      "name": "withdraw",
      "outputs": [],
      "stateMutability": "payable",
      "type": "function"
    }
  ],
  "bytecode": "0x60806040526019600655609660075560fa60085561015e600955610190600a556101f4600b556729a2241af62c0000600c55670de0b6b3a7640000600d556706f05b59d3b20000600e5567016345785d8a0000600f5566b1a2bc2ec50000601055662386f26fc100006011556014805460ff191690553480156200008257600080fd5b506040518060600160405280603681526020016200277860369139620000a881620000bf565b50620000b433620000d8565b60016005556200020d565b8051620000d49060029060208401906200012a565b5050565b600380546001600160a01b038381166001600160a01b0319831681179093556040519116919082907f8be0079c531659141344cd1fd0a4f28419497f9722a3daafe3b4186f6b6457e090600090a35050565b8280546200013890620001d0565b90600052602060002090601f0160209004810192826200015c5760008555620001a7565b82601f106200017757805160ff1916838001178555620001a7565b82800160010185558215620001a7579182015b82811115620001a75782518255916020019190600101906200018a565b50620001b5929150620001b9565b5090565b5b80821115620001b55760008155600101620001ba565b600181811c90821680620001e557607f821691505b602082108114156200020757634e487b7160e01b600052602260045260246000fd5b50919050565b61255b806200021d6000396000f3fe60806040526004361061025b5760003560e01c80639422424b11610144578063c8eb86c8116100b6578063da248c4b1161007a578063da248c4b146106bf578063dd6f1752146106df578063e985e9c5146106f5578063f242432a1461073e578063f2fde38b1461075e578063fad078df1461077e57600080fd5b8063c8eb86c81461063d578063ca5605b314610653578063ce1d91f414610669578063d02439fe14610689578063d47573d41461069f57600080fd5b8063aeb8062111610108578063aeb806211461057a578063b78a5d771461059a578063b7e2698d146105ba578063b7f24320146105da578063bd85b039146105fa578063bf7ee4a51461062757600080fd5b80639422424b146104fb5780639a41aa731461051b578063a0712d6814610531578063a22cb46514610544578063ab2483481461056457600080fd5b806340624b79116101dd5780635c975abb116101a15780635c975abb14610444578063668715201461045e578063715018a61461047e5780637814308b146104935780638d61e9f1146104b35780638da5cb5b146104d357600080fd5b806340624b791461039c5780634e1273f4146103b25780634f558e79146103df578063559c039a1461040e5780635c774f031461042457600080fd5b806325ba5f561161022457806325ba5f56146103325780632eb2c2d6146103485780633235d397146103685780633ba09b9e1461037e5780633ccfd60b1461039457600080fd5b8062fdd58e1461026057806301ffc9a71461029357806302fe5305146102c35780630e89341c146102e55780631e6b8b8214610312575b600080fd5b34801561026c57600080fd5b5061028061027b366004611ec4565b61079e565b6040519081526020015b60405180910390f35b34801561029f57600080fd5b506102b36102ae366004611fd2565b610834565b604051901515815260200161028a565b3480156102cf57600080fd5b506102e36102de36600461200a565b610886565b005b3480156102f157600080fd5b50610305610300366004612058565b61089a565b60405161028a919061221a565b34801561031e57600080fd5b506102e361032d366004612058565b610931565b34801561033e57600080fd5b5061028060095481565b34801561035457600080fd5b506102e3610363366004611d92565b61093e565b34801561037457600080fd5b5061028060065481565b34801561038a57600080fd5b5061028060085481565b6102e361098a565b3480156103a857600080fd5b50610280600e5481565b3480156103be57600080fd5b506103d26103cd366004611eed565b6109e7565b60405161028a91906121d9565b3480156103eb57600080fd5b506102b36103fa366004612058565b600090815260046020526040902054151590565b34801561041a57600080fd5b50610280600a5481565b34801561043057600080fd5b506102e361043f366004612058565b610b49565b34801561045057600080fd5b506014546102b39060ff1681565b34801561046a57600080fd5b506102e3610479366004612058565b610b56565b34801561048a57600080fd5b506102e3610b63565b34801561049f57600080fd5b506102e36104ae366004612058565b610b77565b3480156104bf57600080fd5b506102e36104ce366004612058565b610b84565b3480156104df57600080fd5b506003546040516001600160a01b03909116815260200161028a565b34801561050757600080fd5b506102e3610516366004611fb8565b610b91565b34801561052757600080fd5b50610280600c5481565b6102e361053f366004612058565b610bac565b34801561055057600080fd5b506102e361055f366004611e9b565b610d2f565b34801561057057600080fd5b5061028060075481565b34801561058657600080fd5b506102e3610595366004612058565b610d3e565b3480156105a657600080fd5b506102e36105b5366004612058565b610d4b565b3480156105c657600080fd5b506102e36105d5366004612058565b610d58565b3480156105e657600080fd5b506102e36105f5366004612058565b610d65565b34801561060657600080fd5b50610280610615366004612058565b60009081526004602052604090205490565b34801561063357600080fd5b5061028060115481565b34801561064957600080fd5b50610280600f5481565b34801561065f57600080fd5b5061028060105481565b34801561067557600080fd5b506102e3610684366004612058565b610d72565b34801561069557600080fd5b50610280600d5481565b3480156106ab57600080fd5b506102e36106ba366004612070565b610d7f565b3480156106cb57600080fd5b506102e36106da366004612058565b610db4565b3480156106eb57600080fd5b50610280600b5481565b34801561070157600080fd5b506102b3610710366004611d60565b6001600160a01b03918216600090815260016020908152604080832093909416825291909152205460ff1690565b34801561074a57600080fd5b506102e3610759366004611e38565b610dc1565b34801561076a57600080fd5b506102e3610779366004611d46565b610e06565b34801561078a57600080fd5b506102e3610799366004612058565b610e7c565b60006001600160a01b03831661080e5760405162461bcd60e51b815260206004820152602a60248201527f455243313135353a2061646472657373207a65726f206973206e6f742061207660448201526930b634b21037bbb732b960b11b60648201526084015b60405180910390fd5b506000908152602081815260408083206001600160a01b03949094168352929052205490565b60006001600160e01b03198216636cdb3d1360e11b148061086557506001600160e01b031982166303a24d0760e21b145b8061088057506301ffc9a760e01b6001600160e01b03198316145b92915050565b61088e610e89565b61089781610ee3565b50565b6000818152600460205260409020546060906108f85760405162461bcd60e51b815260206004820152601860248201527f5552493a20746f6b656e20646f65736e277420657869737400000000000000006044820152606401610805565b61090182610ef6565b61090a83610f8a565b60405160200161091b9291906120f7565b6040516020818303038152906040529050919050565b610939610e89565b600655565b6001600160a01b03851633148061095a575061095a8533610710565b6109765760405162461bcd60e51b815260040161080590612275565b610983858585858561102d565b5050505050565b610992610e89565b604051600090339047908381818185875af1925050503d80600081146109d4576040519150601f19603f3d011682016040523d82523d6000602084013e6109d9565b606091505b505090508061089757600080fd5b60608151835114610a4c5760405162461bcd60e51b815260206004820152602960248201527f455243313135353a206163636f756e747320616e6420696473206c656e677468604482015268040dad2e6dac2e8c6d60bb1b6064820152608401610805565b6000835167ffffffffffffffff811115610a7657634e487b7160e01b600052604160045260246000fd5b604051908082528060200260200182016040528015610a9f578160200160208202803683370190505b50905060005b8451811015610b4157610b06858281518110610ad157634e487b7160e01b600052603260045260246000fd5b6020026020010151858381518110610af957634e487b7160e01b600052603260045260246000fd5b602002602001015161079e565b828281518110610b2657634e487b7160e01b600052603260045260246000fd5b6020908102919091010152610b3a81612426565b9050610aa5565b509392505050565b610b51610e89565b600c55565b610b5e610e89565b600755565b610b6b610e89565b610b756000611234565b565b610b7f610e89565b601055565b610b8c610e89565b600e55565b610b99610e89565b6014805460ff1916911515919091179055565b60145460ff1615610bf45760405162461bcd60e51b815260206004820152601260248201527118dbdb9d185c98dd081a5cc81c185d5cd95960721b6044820152606401610805565b60808110610c0d57600754601255600d54601355610c7e565b60638110610c2657600854601255600e54601355610c7e565b60408110610c3f57600954601255600f54601355610c7e565b60258110610c5857600a54601255601054601355610c7e565b600a8110610c7157600b54601255601154601355610c7e565b600654601255600c546013555b6012546000828152600460205260409020541115610ccb5760405162461bcd60e51b815260206004820152600a60248201526915d9481cdbdb191bdd5d60b21b6044820152606401610805565b601354341015610d135760405162461bcd60e51b8152602060048201526013602482015272139bdd08195b9bdd59da08189b98881cd95b9d606a1b6044820152606401610805565b6108973382600160405180602001604052806000815250611286565b610d3a3383836113a9565b5050565b610d46610e89565b600a55565b610d53610e89565b600f55565b610d60610e89565b600b55565b610d6d610e89565b600955565b610d7a610e89565b600d55565b610d87610e89565b610d8f61148a565b610daa33838360405180602001604052806000815250611286565b610d3a6001600555565b610dbc610e89565b601155565b6001600160a01b038516331480610ddd5750610ddd8533610710565b610df95760405162461bcd60e51b815260040161080590612275565b61098385858585856114e4565b610e0e610e89565b6001600160a01b038116610e735760405162461bcd60e51b815260206004820152602660248201527f4f776e61626c653a206e6577206f776e657220697320746865207a65726f206160448201526564647265737360d01b6064820152608401610805565b61089781611234565b610e84610e89565b600855565b6003546001600160a01b03163314610b755760405162461bcd60e51b815260206004820181905260248201527f4f776e61626c653a2063616c6c6572206973206e6f7420746865206f776e65726044820152606401610805565b8051610d3a906002906020840190611b89565b606060028054610f05906123be565b80601f0160208091040260200160405190810160405280929190818152602001828054610f31906123be565b8015610f7e5780601f10610f5357610100808354040283529160200191610f7e565b820191906000526020600020905b815481529060010190602001808311610f6157829003601f168201915b50505050509050919050565b60606000610f978361161c565b600101905060008167ffffffffffffffff811115610fc557634e487b7160e01b600052604160045260246000fd5b6040519080825280601f01601f191660200182016040528015610fef576020820181803683370190505b5090508181016020015b600019016f181899199a1a9b1b9c1cb0b131b232b360811b600a86061a8153600a850494508461102857610b41565b610ff9565b815183511461108f5760405162461bcd60e51b815260206004820152602860248201527f455243313135353a2069647320616e6420616d6f756e7473206c656e677468206044820152670dad2e6dac2e8c6d60c31b6064820152608401610805565b6001600160a01b0384166110b55760405162461bcd60e51b8152600401610805906122c3565b336110c48187878787876116f4565b60005b84518110156111c65760008582815181106110f257634e487b7160e01b600052603260045260246000fd5b60200260200101519050600085838151811061111e57634e487b7160e01b600052603260045260246000fd5b602090810291909101810151600084815280835260408082206001600160a01b038e16835290935291909120549091508181101561116e5760405162461bcd60e51b815260040161080590612308565b6000838152602081815260408083206001600160a01b038e8116855292528083208585039055908b168252812080548492906111ab908490612376565b92505081905550505050806111bf90612426565b90506110c7565b50846001600160a01b0316866001600160a01b0316826001600160a01b03167f4a39dc06d4c0dbc64b70af90fd698a233a518aa5d07e595d983b8c0526c8f7fb87876040516112169291906121ec565b60405180910390a461122c81878787878761174a565b505050505050565b600380546001600160a01b038381166001600160a01b0319831681179093556040519116919082907f8be0079c531659141344cd1fd0a4f28419497f9722a3daafe3b4186f6b6457e090600090a35050565b6001600160a01b0384166112e65760405162461bcd60e51b815260206004820152602160248201527f455243313135353a206d696e7420746f20746865207a65726f206164647265736044820152607360f81b6064820152608401610805565b3360006112f2856118b5565b905060006112ff856118b5565b9050611310836000898585896116f4565b6000868152602081815260408083206001600160a01b038b16845290915281208054879290611340908490612376565b909155505060408051878152602081018790526001600160a01b03808a1692600092918716917fc3d58168c5ae7397731d063d5bbf3d657854427343f4c083240f7aacaa2d0f62910160405180910390a46113a08360008989898961190e565b50505050505050565b816001600160a01b0316836001600160a01b0316141561141d5760405162461bcd60e51b815260206004820152602960248201527f455243313135353a2073657474696e6720617070726f76616c20737461747573604482015268103337b91039b2b63360b91b6064820152608401610805565b6001600160a01b03838116600081815260016020908152604080832094871680845294825291829020805460ff191686151590811790915591519182527f17307eab39ab6107e8899845ad3d59bd9653f200f220920489ca2b5937696c31910160405180910390a3505050565b600260055414156114dd5760405162461bcd60e51b815260206004820152601f60248201527f5265656e7472616e637947756172643a207265656e7472616e742063616c6c006044820152606401610805565b6002600555565b6001600160a01b03841661150a5760405162461bcd60e51b8152600401610805906122c3565b336000611516856118b5565b90506000611523856118b5565b90506115338389898585896116f4565b6000868152602081815260408083206001600160a01b038c168452909152902054858110156115745760405162461bcd60e51b815260040161080590612308565b6000878152602081815260408083206001600160a01b038d8116855292528083208985039055908a168252812080548892906115b1908490612376565b909155505060408051888152602081018890526001600160a01b03808b16928c821692918816917fc3d58168c5ae7397731d063d5bbf3d657854427343f4c083240f7aacaa2d0f62910160405180910390a4611611848a8a8a8a8a61190e565b505050505050505050565b60008072184f03e93ff9f4daa797ed6e38ed64bf6a1f0160401b831061165b5772184f03e93ff9f4daa797ed6e38ed64bf6a1f0160401b830492506040015b6d04ee2d6d415b85acef81000000008310611687576d04ee2d6d415b85acef8100000000830492506020015b662386f26fc1000083106116a557662386f26fc10000830492506010015b6305f5e10083106116bd576305f5e100830492506008015b61271083106116d157612710830492506004015b606483106116e3576064830492506002015b600a83106108805760010192915050565b60145460ff161561173c5760405162461bcd60e51b815260206004820152601260248201527118dbdb9d1c9858dd081a5cc81c185d5cd95960721b6044820152606401610805565b61122c8686868686866119d8565b6001600160a01b0384163b1561122c5760405163bc197c8160e01b81526001600160a01b0385169063bc197c819061178e9089908990889088908890600401612136565b602060405180830381600087803b1580156117a857600080fd5b505af19250505080156117d8575060408051601f3d908101601f191682019092526117d591810190611fee565b60015b611885576117e461246d565b806308c379a0141561181e57506117f9612485565b806118045750611820565b8060405162461bcd60e51b8152600401610805919061221a565b505b60405162461bcd60e51b815260206004820152603460248201527f455243313135353a207472616e7366657220746f206e6f6e2d455243313135356044820152732932b1b2b4bb32b91034b6b83632b6b2b73a32b960611b6064820152608401610805565b6001600160e01b0319811663bc197c8160e01b146113a05760405162461bcd60e51b81526004016108059061222d565b604080516001808252818301909252606091600091906020808301908036833701905050905082816000815181106118fd57634e487b7160e01b600052603260045260246000fd5b602090810291909101015292915050565b6001600160a01b0384163b1561122c5760405163f23a6e6160e01b81526001600160a01b0385169063f23a6e61906119529089908990889088908890600401612194565b602060405180830381600087803b15801561196c57600080fd5b505af192505050801561199c575060408051601f3d908101601f1916820190925261199991810190611fee565b60015b6119a8576117e461246d565b6001600160e01b0319811663f23a6e6160e01b146113a05760405162461bcd60e51b81526004016108059061222d565b6001600160a01b038516611a7b5760005b8351811015611a7957828181518110611a1257634e487b7160e01b600052603260045260246000fd5b602002602001015160046000868481518110611a3e57634e487b7160e01b600052603260045260246000fd5b602002602001015181526020019081526020016000206000828254611a639190612376565b90915550611a72905081612426565b90506119e9565b505b6001600160a01b03841661122c5760005b83518110156113a0576000848281518110611ab757634e487b7160e01b600052603260045260246000fd5b602002602001015190506000848381518110611ae357634e487b7160e01b600052603260045260246000fd5b6020026020010151905060006004600084815260200190815260200160002054905081811015611b665760405162461bcd60e51b815260206004820152602860248201527f455243313135353a206275726e20616d6f756e74206578636565647320746f74604482015267616c537570706c7960c01b6064820152608401610805565b60009283526004602052604090922091039055611b8281612426565b9050611a8c565b828054611b95906123be565b90600052602060002090601f016020900481019282611bb75760008555611bfd565b82601f10611bd057805160ff1916838001178555611bfd565b82800160010185558215611bfd579182015b82811115611bfd578251825591602001919060010190611be2565b50611c09929150611c0d565b5090565b5b80821115611c095760008155600101611c0e565b600067ffffffffffffffff831115611c3c57611c3c612457565b604051611c53601f8501601f1916602001826123f9565b809150838152848484011115611c6857600080fd5b83836020830137600060208583010152509392505050565b80356001600160a01b0381168114611c9757600080fd5b919050565b600082601f830112611cac578081fd5b81356020611cb982612352565b604051611cc682826123f9565b8381528281019150858301600585901b87018401881015611ce5578586fd5b855b85811015611d0357813584529284019290840190600101611ce7565b5090979650505050505050565b80358015158114611c9757600080fd5b600082601f830112611d30578081fd5b611d3f83833560208501611c22565b9392505050565b600060208284031215611d57578081fd5b611d3f82611c80565b60008060408385031215611d72578081fd5b611d7b83611c80565b9150611d8960208401611c80565b90509250929050565b600080600080600060a08688031215611da9578081fd5b611db286611c80565b9450611dc060208701611c80565b9350604086013567ffffffffffffffff80821115611ddc578283fd5b611de889838a01611c9c565b94506060880135915080821115611dfd578283fd5b611e0989838a01611c9c565b93506080880135915080821115611e1e578283fd5b50611e2b88828901611d20565b9150509295509295909350565b600080600080600060a08688031215611e4f578081fd5b611e5886611c80565b9450611e6660208701611c80565b93506040860135925060608601359150608086013567ffffffffffffffff811115611e8f578182fd5b611e2b88828901611d20565b60008060408385031215611ead578182fd5b611eb683611c80565b9150611d8960208401611d10565b60008060408385031215611ed6578182fd5b611edf83611c80565b946020939093013593505050565b60008060408385031215611eff578182fd5b823567ffffffffffffffff80821115611f16578384fd5b818501915085601f830112611f29578384fd5b81356020611f3682612352565b604051611f4382826123f9565b8381528281019150858301600585901b870184018b1015611f62578889fd5b8896505b84871015611f8b57611f7781611c80565b835260019690960195918301918301611f66565b5096505086013592505080821115611fa1578283fd5b50611fae85828601611c9c565b9150509250929050565b600060208284031215611fc9578081fd5b611d3f82611d10565b600060208284031215611fe3578081fd5b8135611d3f8161250f565b600060208284031215611fff578081fd5b8151611d3f8161250f565b60006020828403121561201b578081fd5b813567ffffffffffffffff811115612031578182fd5b8201601f81018413612041578182fd5b61205084823560208401611c22565b949350505050565b600060208284031215612069578081fd5b5035919050565b60008060408385031215612082578182fd5b50508035926020909101359150565b6000815180845260208085019450808401835b838110156120c0578151875295820195908201906001016120a4565b509495945050505050565b600081518084526120e381602086016020860161238e565b601f01601f19169290920160200192915050565b6000835161210981846020880161238e565b83519083019061211d81836020880161238e565b64173539b7b760d91b9101908152600501949350505050565b6001600160a01b0386811682528516602082015260a06040820181905260009061216290830186612091565b82810360608401526121748186612091565b9050828103608084015261218881856120cb565b98975050505050505050565b6001600160a01b03868116825285166020820152604081018490526060810183905260a0608082018190526000906121ce908301846120cb565b979650505050505050565b602081526000611d3f6020830184612091565b6040815260006121ff6040830185612091565b82810360208401526122118185612091565b95945050505050565b602081526000611d3f60208301846120cb565b60208082526028908201527f455243313135353a204552433131353552656365697665722072656a656374656040820152676420746f6b656e7360c01b606082015260800190565b6020808252602e908201527f455243313135353a2063616c6c6572206973206e6f7420746f6b656e206f776e60408201526d195c881bdc88185c1c1c9bdd995960921b606082015260800190565b60208082526025908201527f455243313135353a207472616e7366657220746f20746865207a65726f206164604082015264647265737360d81b606082015260800190565b6020808252602a908201527f455243313135353a20696e73756666696369656e742062616c616e636520666f60408201526939103a3930b739b332b960b11b606082015260800190565b600067ffffffffffffffff82111561236c5761236c612457565b5060051b60200190565b6000821982111561238957612389612441565b500190565b60005b838110156123a9578181015183820152602001612391565b838111156123b8576000848401525b50505050565b600181811c908216806123d257607f821691505b602082108114156123f357634e487b7160e01b600052602260045260246000fd5b50919050565b601f8201601f1916810167ffffffffffffffff8111828210171561241f5761241f612457565b6040525050565b600060001982141561243a5761243a612441565b5060010190565b634e487b7160e01b600052601160045260246000fd5b634e487b7160e01b600052604160045260246000fd5b600060033d111561248257600481823e5160e01c5b90565b600060443d10156124935790565b6040516003193d81016004833e81513d67ffffffffffffffff81602484011181841117156124c357505050505090565b82850191508151818111156124db5750505050505090565b843d87010160208285010111156124f55750505050505090565b612504602082860101876123f9565b509095945050505050565b6001600160e01b03198116811461089757600080fdfea2646970667358221220662d6d553b812a79d80f1cd2982c195a36eefaa7ef0601f0cfff335759771f9364736f6c63430008040033697066733a2f2f516d5339685941414162536e697966554a4d78555a7650636d3169526b626d38726a4a6f444e445678756d31654e2f",
  "linkReferences": {},
  "deployedLinkReferences": {}
}