{
  "_format": "hh-sol-artifact-1",
  "contractName": "DexBattle",
  "sourceName": "contracts/DexBattle.sol",
  "abi": [
    {
      "inputs": [],
      "stateMutability": "nonpayable",
      "type": "constructor"
    },
    {
      "anonymous": false,
      "inputs": [
        {
          "indexed": true,
          "internalType": "address",
          "name": "account",
          "type": "address"
        },
        {
          "indexed": true,
          "internalType": "address",
          "name": "operator",
          "type": "address"
        },
        {
          "indexed": false,
          "internalType": "bool",
          "name": "approved",
          "type": "bool"
        }
      ],
      "name": "ApprovalForAll",
      "type": "event"
    },
    {
      "anonymous": false,
      "inputs": [
        {
          "indexed": true,
          "internalType": "address",
          "name": "previousOwner",
          "type": "address"
        },
        {
          "indexed": true,
          "internalType": "address",
          "name": "newOwner",
          "type": "address"
        }
      ],
      "name": "OwnershipTransferred",
      "type": "event"
    },
    {
      "anonymous": false,
      "inputs": [
        {
          "indexed": false,
          "internalType": "address",
          "name": "account",
          "type": "address"
        }
      ],
      "name": "Paused",
      "type": "event"
    },
    {
      "anonymous": false,
      "inputs": [
        {
          "indexed": true,
          "internalType": "address",
          "name": "operator",
          "type": "address"
        },
        {
          "indexed": true,
          "internalType": "address",
          "name": "from",
          "type": "address"
        },
        {
          "indexed": true,
          "internalType": "address",
          "name": "to",
          "type": "address"
        },
        {
          "indexed": false,
          "internalType": "uint256[]",
          "name": "ids",
          "type": "uint256[]"
        },
        {
          "indexed": false,
          "internalType": "uint256[]",
          "name": "values",
          "type": "uint256[]"
        }
      ],
      "name": "TransferBatch",
      "type": "event"
    },
    {
      "anonymous": false,
      "inputs": [
        {
          "indexed": true,
          "internalType": "address",
          "name": "operator",
          "type": "address"
        },
        {
          "indexed": true,
          "internalType": "address",
          "name": "from",
          "type": "address"
        },
        {
          "indexed": true,
          "internalType": "address",
          "name": "to",
          "type": "address"
        },
        {
          "indexed": false,
          "internalType": "uint256",
          "name": "id",
          "type": "uint256"
        },
        {
          "indexed": false,
          "internalType": "uint256",
          "name": "value",
          "type": "uint256"
        }
      ],
      "name": "TransferSingle",
      "type": "event"
    },
    {
      "anonymous": false,
      "inputs": [
        {
          "indexed": false,
          "internalType": "string",
          "name": "value",
          "type": "string"
        },
        {
          "indexed": true,
          "internalType": "uint256",
          "name": "id",
          "type": "uint256"
        }
      ],
      "name": "URI",
      "type": "event"
    },
    {
      "anonymous": false,
      "inputs": [
        {
          "indexed": false,
          "internalType": "address",
          "name": "account",
          "type": "address"
        }
      ],
      "name": "Unpaused",
      "type": "event"
    },
    {
      "inputs": [],
      "name": "Common_items_cost",
      "outputs": [
        {
          "internalType": "uint256",
          "name": "",
          "type": "uint256"
        }
      ],
      "stateMutability": "view",
      "type": "function"
    },
    {
      "inputs": [],
      "name": "Epic_items_cost",
      "outputs": [
        {
          "internalType": "uint256",
          "name": "",
          "type": "uint256"
        }
      ],
      "stateMutability": "view",
      "type": "function"
    },
    {
      "inputs": [],
      "name": "Leader_items_cost",
      "outputs": [
        {
          "internalType": "uint256",
          "name": "",
          "type": "uint256"
        }
      ],
      "stateMutability": "view",
      "type": "function"
    },
    {
      "inputs": [],
      "name": "Legendary_items_cost",
      "outputs": [
        {
          "internalType": "uint256",
          "name": "",
          "type": "uint256"
        }
      ],
      "stateMutability": "view",
      "type": "function"
    },
    {
      "inputs": [],
      "name": "Rare_items_cost",
      "outputs": [
        {
          "internalType": "uint256",
          "name": "",
          "type": "uint256"
        }
      ],
      "stateMutability": "view",
      "type": "function"
    },
    {
      "inputs": [],
      "name": "Uncommon_items_cost",
      "outputs": [
        {
          "internalType": "uint256",
          "name": "",
          "type": "uint256"
        }
      ],
      "stateMutability": "view",
      "type": "function"
    },
    {
      "inputs": [
        {
          "internalType": "address",
          "name": "account",
          "type": "address"
        },
        {
          "internalType": "uint256",
          "name": "id",
          "type": "uint256"
        }
      ],
      "name": "balanceOf",
      "outputs": [
        {
          "internalType": "uint256",
          "name": "",
          "type": "uint256"
        }
      ],
      "stateMutability": "view",
      "type": "function"
    },
    {
      "inputs": [
        {
          "internalType": "address[]",
          "name": "accounts",
          "type": "address[]"
        },
        {
          "internalType": "uint256[]",
          "name": "ids",
          "type": "uint256[]"
        }
      ],
      "name": "balanceOfBatch",
      "outputs": [
        {
          "internalType": "uint256[]",
          "name": "",
          "type": "uint256[]"
        }
      ],
      "stateMutability": "view",
      "type": "function"
    },
    {
      "inputs": [
        {
          "internalType": "uint256",
          "name": "id",
          "type": "uint256"
        }
      ],
      "name": "exists",
      "outputs": [
        {
          "internalType": "bool",
          "name": "",
          "type": "bool"
        }
      ],
      "stateMutability": "view",
      "type": "function"
    },
    {
      "inputs": [
        {
          "internalType": "address",
          "name": "account",
          "type": "address"
        },
        {
          "internalType": "address",
          "name": "operator",
          "type": "address"
        }
      ],
      "name": "isApprovedForAll",
      "outputs": [
        {
          "internalType": "bool",
          "name": "",
          "type": "bool"
        }
      ],
      "stateMutability": "view",
      "type": "function"
    },
    {
      "inputs": [],
      "name": "maxCommonSupply",
      "outputs": [
        {
          "internalType": "uint256",
          "name": "",
          "type": "uint256"
        }
      ],
      "stateMutability": "view",
      "type": "function"
    },
    {
      "inputs": [],
      "name": "maxEpicSupply",
      "outputs": [
        {
          "internalType": "uint256",
          "name": "",
          "type": "uint256"
        }
      ],
      "stateMutability": "view",
      "type": "function"
    },
    {
      "inputs": [],
      "name": "maxLeaderSupply",
      "outputs": [
        {
          "internalType": "uint256",
          "name": "",
          "type": "uint256"
        }
      ],
      "stateMutability": "view",
      "type": "function"
    },
    {
      "inputs": [],
      "name": "maxLegendarySupply",
      "outputs": [
        {
          "internalType": "uint256",
          "name": "",
          "type": "uint256"
        }
      ],
      "stateMutability": "view",
      "type": "function"
    },
    {
      "inputs": [],
      "name": "maxRareSupply",
      "outputs": [
        {
          "internalType": "uint256",
          "name": "",
          "type": "uint256"
        }
      ],
      "stateMutability": "view",
      "type": "function"
    },
    {
      "inputs": [],
      "name": "maxUncommonSupply",
      "outputs": [
        {
          "internalType": "uint256",
          "name": "",
          "type": "uint256"
        }
      ],
      "stateMutability": "view",
      "type": "function"
    },
    {
      "inputs": [
        {
          "internalType": "uint256",
          "name": "id",
          "type": "uint256"
        }
      ],
      "name": "mint",
      "outputs": [],
      "stateMutability": "payable",
      "type": "function"
    },
    {
      "inputs": [],
      "name": "owner",
      "outputs": [
        {
          "internalType": "address",
          "name": "",
          "type": "address"
        }
      ],
      "stateMutability": "view",
      "type": "function"
    },
    {
      "inputs": [
        {
          "internalType": "uint256",
          "name": "id",
          "type": "uint256"
        },
        {
          "internalType": "uint256",
          "name": "amounts",
          "type": "uint256"
        }
      ],
      "name": "ownerMint",
      "outputs": [],
      "stateMutability": "nonpayable",
      "type": "function"
    },
    {
      "inputs": [],
      "name": "pause",
      "outputs": [],
      "stateMutability": "nonpayable",
      "type": "function"
    },
    {
      "inputs": [],
      "name": "paused",
      "outputs": [
        {
          "internalType": "bool",
          "name": "",
          "type": "bool"
        }
      ],
      "stateMutability": "view",
      "type": "function"
    },
    {
      "inputs": [],
      "name": "renounceOwnership",
      "outputs": [],
      "stateMutability": "nonpayable",
      "type": "function"
    },
    {
      "inputs": [
        {
          "internalType": "address",
          "name": "from",
          "type": "address"
        },
        {
          "internalType": "address",
          "name": "to",
          "type": "address"
        },
        {
          "internalType": "uint256[]",
          "name": "ids",
          "type": "uint256[]"
        },
        {
          "internalType": "uint256[]",
          "name": "amounts",
          "type": "uint256[]"
        },
        {
          "internalType": "bytes",
          "name": "data",
          "type": "bytes"
        }
      ],
      "name": "safeBatchTransferFrom",
      "outputs": [],
      "stateMutability": "nonpayable",
      "type": "function"
    },
    {
      "inputs": [
        {
          "internalType": "address",
          "name": "from",
          "type": "address"
        },
        {
          "internalType": "address",
          "name": "to",
          "type": "address"
        },
        {
          "internalType": "uint256",
          "name": "id",
          "type": "uint256"
        },
        {
          "internalType": "uint256",
          "name": "amount",
          "type": "uint256"
        },
        {
          "internalType": "bytes",
          "name": "data",
          "type": "bytes"
        }
      ],
      "name": "safeTransferFrom",
      "outputs": [],
      "stateMutability": "nonpayable",
      "type": "function"
    },
    {
      "inputs": [
        {
          "internalType": "address",
          "name": "operator",
          "type": "address"
        },
        {
          "internalType": "bool",
          "name": "approved",
          "type": "bool"
        }
      ],
      "name": "setApprovalForAll",
      "outputs": [],
      "stateMutability": "nonpayable",
      "type": "function"
    },
    {
      "inputs": [
        {
          "internalType": "uint256",
          "name": "_newsupply",
          "type": "uint256"
        }
      ],
      "name": "setMaxCommonSupply",
      "outputs": [],
      "stateMutability": "nonpayable",
      "type": "function"
    },
    {
      "inputs": [
        {
          "internalType": "uint256",
          "name": "_newsupply",
          "type": "uint256"
        }
      ],
      "name": "setMaxEpicSupply",
      "outputs": [],
      "stateMutability": "nonpayable",
      "type": "function"
    },
    {
      "inputs": [
        {
          "internalType": "uint256",
          "name": "_newsupply",
          "type": "uint256"
        }
      ],
      "name": "setMaxLegendarySupply",
      "outputs": [],
      "stateMutability": "nonpayable",
      "type": "function"
    },
    {
      "inputs": [
        {
          "internalType": "uint256",
          "name": "_newsupply",
          "type": "uint256"
        }
      ],
      "name": "setMaxRareSupply",
      "outputs": [],
      "stateMutability": "nonpayable",
      "type": "function"
    },
    {
      "inputs": [
        {
          "internalType": "uint256",
          "name": "_newsupply",
          "type": "uint256"
        }
      ],
      "name": "setMaxUncommonSupply",
      "outputs": [],
      "stateMutability": "nonpayable",
      "type": "function"
    },
    {
      "inputs": [
        {
          "internalType": "uint256",
          "name": "_newsupply",
          "type": "uint256"
        }
      ],
      "name": "setMaxleaderSupply",
      "outputs": [],
      "stateMutability": "nonpayable",
      "type": "function"
    },
    {
      "inputs": [
        {
          "internalType": "string",
          "name": "newuri",
          "type": "string"
        }
      ],
      "name": "setURI",
      "outputs": [],
      "stateMutability": "nonpayable",
      "type": "function"
    },
    {
      "inputs": [
        {
          "internalType": "uint256",
          "name": "_newcost",
          "type": "uint256"
        }
      ],
      "name": "set_Common_items_cost",
      "outputs": [],
      "stateMutability": "nonpayable",
      "type": "function"
    },
    {
      "inputs": [
        {
          "internalType": "uint256",
          "name": "_newcost",
          "type": "uint256"
        }
      ],
      "name": "set_Epic_items_cost",
      "outputs": [],
      "stateMutability": "nonpayable",
      "type": "function"
    },
    {
      "inputs": [
        {
          "internalType": "uint256",
          "name": "_newcost",
          "type": "uint256"
        }
      ],
      "name": "set_Leader_items_cost",
      "outputs": [],
      "stateMutability": "nonpayable",
      "type": "function"
    },
    {
      "inputs": [
        {
          "internalType": "uint256",
          "name": "_newcost",
          "type": "uint256"
        }
      ],
      "name": "set_Legendary_items_cost",
      "outputs": [],
      "stateMutability": "nonpayable",
      "type": "function"
    },
    {
      "inputs": [
        {
          "internalType": "uint256",
          "name": "_newcost",
          "type": "uint256"
        }
      ],
      "name": "set_Rare_items_cost",
      "outputs": [],
      "stateMutability": "nonpayable",
      "type": "function"
    },
    {
      "inputs": [
        {
          "internalType": "uint256",
          "name": "_newcost",
          "type": "uint256"
        }
      ],
      "name": "set_Uncommon_items_cost",
      "outputs": [],
      "stateMutability": "nonpayable",
      "type": "function"
    },
    {
      "inputs": [
        {
          "internalType": "bytes4",
          "name": "interfaceId",
          "type": "bytes4"
        }
      ],
      "name": "supportsInterface",
      "outputs": [
        {
          "internalType": "bool",
          "name": "",
          "type": "bool"
        }
      ],
      "stateMutability": "view",
      "type": "function"
    },
    {
      "inputs": [
        {
          "internalType": "uint256",
          "name": "id",
          "type": "uint256"
        }
      ],
      "name": "totalSupply",
      "outputs": [
        {
          "internalType": "uint256",
          "name": "",
          "type": "uint256"
        }
      ],
      "stateMutability": "view",
      "type": "function"
    },
    {
      "inputs": [
        {
          "internalType": "address",
          "name": "newOwner",
          "type": "address"
        }
      ],
      "name": "transferOwnership",
      "outputs": [],
      "stateMutability": "nonpayable",
      "type": "function"
    },
    {
      "inputs": [],
      "name": "unpause",
      "outputs": [],
      "stateMutability": "nonpayable",
      "type": "function"
    },
    {
      "inputs": [
        {
          "internalType": "uint256",
          "name": "_id",
          "type": "uint256"
        }
      ],
      "name": "uri",
      "outputs": [
        {
          "internalType": "string",
          "name": "",
          "type": "string"
        }
      ],
      "stateMutability": "view",
      "type": "function"
    },
    {
      "inputs": [],
      "name": "withdraw",
      "outputs": [],
      "stateMutability": "payable",
      "type": "function"
    }
  ],
  "bytecode": "0x60806040526019600655609660075560fa60085561015e600955610190600a556101f4600b556729a2241af62c0000600c55670de0b6b3a7640000600d556706f05b59d3b20000600e5567016345785d8a0000600f5566b1a2bc2ec50000601055662386f26fc100006011553480156200007857600080fd5b506040518060600160405280603681526020016200282e603691396200009e81620000c2565b50620000aa33620000db565b6003805460ff60a01b19169055600160055562000210565b8051620000d79060029060208401906200012d565b5050565b600380546001600160a01b038381166001600160a01b0319831681179093556040519116919082907f8be0079c531659141344cd1fd0a4f28419497f9722a3daafe3b4186f6b6457e090600090a35050565b8280546200013b90620001d3565b90600052602060002090601f0160209004810192826200015f5760008555620001aa565b82601f106200017a57805160ff1916838001178555620001aa565b82800160010185558215620001aa579182015b82811115620001aa5782518255916020019190600101906200018d565b50620001b8929150620001bc565b5090565b5b80821115620001b85760008155600101620001bd565b600181811c90821680620001e857607f821691505b602082108114156200020a57634e487b7160e01b600052602260045260246000fd5b50919050565b61260e80620002206000396000f3fe6080604052600436106102665760003560e01c80638da5cb5b11610144578063c8eb86c8116100b6578063da248c4b1161007a578063da248c4b146106d9578063dd6f1752146106f9578063e985e9c51461070f578063f242432a14610758578063f2fde38b14610778578063fad078df1461079857600080fd5b8063c8eb86c814610657578063ca5605b31461066d578063ce1d91f414610683578063d02439fe146106a3578063d47573d4146106b957600080fd5b8063aeb8062111610108578063aeb8062114610594578063b78a5d77146105b4578063b7e2698d146105d4578063b7f24320146105f4578063bd85b03914610614578063bf7ee4a51461064157600080fd5b80638da5cb5b1461050d5780639a41aa7314610535578063a0712d681461054b578063a22cb4651461055e578063ab2483481461057e57600080fd5b806340624b79116101dd5780635c975abb116101a15780635c975abb146104645780636687152014610483578063715018a6146104a35780637814308b146104b85780638456cb59146104d85780638d61e9f1146104ed57600080fd5b806340624b79146103bc5780634e1273f4146103d25780634f558e79146103ff578063559c039a1461042e5780635c774f031461044457600080fd5b806325ba5f561161022f57806325ba5f561461033d5780632eb2c2d6146103535780633235d397146103735780633ba09b9e146103895780633ccfd60b1461039f5780633f4ba83a146103a757600080fd5b8062fdd58e1461026b57806301ffc9a71461029e57806302fe5305146102ce5780630e89341c146102f05780631e6b8b821461031d575b600080fd5b34801561027757600080fd5b5061028b610286366004611f91565b6107b8565b6040519081526020015b60405180910390f35b3480156102aa57600080fd5b506102be6102b9366004612085565b61084e565b6040519015158152602001610295565b3480156102da57600080fd5b506102ee6102e93660046120bd565b6108a0565b005b3480156102fc57600080fd5b5061031061030b36600461210b565b6108b4565b60405161029591906122cd565b34801561032957600080fd5b506102ee61033836600461210b565b61094b565b34801561034957600080fd5b5061028b60095481565b34801561035f57600080fd5b506102ee61036e366004611e4e565b610958565b34801561037f57600080fd5b5061028b60065481565b34801561039557600080fd5b5061028b60085481565b6102ee6109a4565b3480156103b357600080fd5b506102ee610a01565b3480156103c857600080fd5b5061028b600e5481565b3480156103de57600080fd5b506103f26103ed366004611fba565b610a13565b604051610295919061228c565b34801561040b57600080fd5b506102be61041a36600461210b565b600090815260046020526040902054151590565b34801561043a57600080fd5b5061028b600a5481565b34801561045057600080fd5b506102ee61045f36600461210b565b610b75565b34801561047057600080fd5b50600354600160a01b900460ff166102be565b34801561048f57600080fd5b506102ee61049e36600461210b565b610b82565b3480156104af57600080fd5b506102ee610b8f565b3480156104c457600080fd5b506102ee6104d336600461210b565b610ba1565b3480156104e457600080fd5b506102ee610bae565b3480156104f957600080fd5b506102ee61050836600461210b565b610bbe565b34801561051957600080fd5b506003546040516001600160a01b039091168152602001610295565b34801561054157600080fd5b5061028b600c5481565b6102ee61055936600461210b565b610bcb565b34801561056a57600080fd5b506102ee610579366004611f57565b610d06565b34801561058a57600080fd5b5061028b60075481565b3480156105a057600080fd5b506102ee6105af36600461210b565b610d15565b3480156105c057600080fd5b506102ee6105cf36600461210b565b610d22565b3480156105e057600080fd5b506102ee6105ef36600461210b565b610d2f565b34801561060057600080fd5b506102ee61060f36600461210b565b610d3c565b34801561062057600080fd5b5061028b61062f36600461210b565b60009081526004602052604090205490565b34801561064d57600080fd5b5061028b60115481565b34801561066357600080fd5b5061028b600f5481565b34801561067957600080fd5b5061028b60105481565b34801561068f57600080fd5b506102ee61069e36600461210b565b610d49565b3480156106af57600080fd5b5061028b600d5481565b3480156106c557600080fd5b506102ee6106d4366004612123565b610d56565b3480156106e557600080fd5b506102ee6106f436600461210b565b610d8b565b34801561070557600080fd5b5061028b600b5481565b34801561071b57600080fd5b506102be61072a366004611e1c565b6001600160a01b03918216600090815260016020908152604080832093909416825291909152205460ff1690565b34801561076457600080fd5b506102ee610773366004611ef4565b610d98565b34801561078457600080fd5b506102ee610793366004611e02565b610ddd565b3480156107a457600080fd5b506102ee6107b336600461210b565b610e53565b60006001600160a01b0383166108285760405162461bcd60e51b815260206004820152602a60248201527f455243313135353a2061646472657373207a65726f206973206e6f742061207660448201526930b634b21037bbb732b960b11b60648201526084015b60405180910390fd5b506000908152602081815260408083206001600160a01b03949094168352929052205490565b60006001600160e01b03198216636cdb3d1360e11b148061087f57506001600160e01b031982166303a24d0760e21b145b8061089a57506301ffc9a760e01b6001600160e01b03198316145b92915050565b6108a8610e60565b6108b181610eba565b50565b6000818152600460205260409020546060906109125760405162461bcd60e51b815260206004820152601860248201527f5552493a20746f6b656e20646f65736e27742065786973740000000000000000604482015260640161081f565b61091b82610ecd565b61092483610f61565b6040516020016109359291906121aa565b6040516020818303038152906040529050919050565b610953610e60565b600655565b6001600160a01b0385163314806109745750610974853361072a565b6109905760405162461bcd60e51b815260040161081f90612328565b61099d8585858585611004565b5050505050565b6109ac610e60565b604051600090339047908381818185875af1925050503d80600081146109ee576040519150601f19603f3d011682016040523d82523d6000602084013e6109f3565b606091505b50509050806108b157600080fd5b610a09610e60565b610a1161120b565b565b60608151835114610a785760405162461bcd60e51b815260206004820152602960248201527f455243313135353a206163636f756e747320616e6420696473206c656e677468604482015268040dad2e6dac2e8c6d60bb1b606482015260840161081f565b6000835167ffffffffffffffff811115610aa257634e487b7160e01b600052604160045260246000fd5b604051908082528060200260200182016040528015610acb578160200160208202803683370190505b50905060005b8451811015610b6d57610b32858281518110610afd57634e487b7160e01b600052603260045260246000fd5b6020026020010151858381518110610b2557634e487b7160e01b600052603260045260246000fd5b60200260200101516107b8565b828281518110610b5257634e487b7160e01b600052603260045260246000fd5b6020908102919091010152610b66816124d9565b9050610ad1565b509392505050565b610b7d610e60565b600c55565b610b8a610e60565b600755565b610b97610e60565b610a116000611260565b610ba9610e60565b601055565b610bb6610e60565b610a116112b2565b610bc6610e60565b600e55565b60808110610be457600754601255600d54601355610c55565b60638110610bfd57600854601255600e54601355610c55565b60408110610c1657600954601255600f54601355610c55565b60258110610c2f57600a54601255601054601355610c55565b600a8110610c4857600b54601255601154601355610c55565b600654601255600c546013555b6012546000828152600460205260409020541115610ca25760405162461bcd60e51b815260206004820152600a60248201526915d9481cdbdb191bdd5d60b21b604482015260640161081f565b601354341015610cea5760405162461bcd60e51b8152602060048201526013602482015272139bdd08195b9bdd59da08189b98881cd95b9d606a1b604482015260640161081f565b6108b133826001604051806020016040528060008152506112f5565b610d11338383611418565b5050565b610d1d610e60565b600a55565b610d2a610e60565b600f55565b610d37610e60565b600b55565b610d44610e60565b600955565b610d51610e60565b600d55565b610d5e610e60565b610d666114f9565b610d81338383604051806020016040528060008152506112f5565b610d116001600555565b610d93610e60565b601155565b6001600160a01b038516331480610db45750610db4853361072a565b610dd05760405162461bcd60e51b815260040161081f90612328565b61099d8585858585611553565b610de5610e60565b6001600160a01b038116610e4a5760405162461bcd60e51b815260206004820152602660248201527f4f776e61626c653a206e6577206f776e657220697320746865207a65726f206160448201526564647265737360d01b606482015260840161081f565b6108b181611260565b610e5b610e60565b600855565b6003546001600160a01b03163314610a115760405162461bcd60e51b815260206004820181905260248201527f4f776e61626c653a2063616c6c6572206973206e6f7420746865206f776e6572604482015260640161081f565b8051610d11906002906020840190611c55565b606060028054610edc90612471565b80601f0160208091040260200160405190810160405280929190818152602001828054610f0890612471565b8015610f555780601f10610f2a57610100808354040283529160200191610f55565b820191906000526020600020905b815481529060010190602001808311610f3857829003601f168201915b50505050509050919050565b60606000610f6e8361168b565b600101905060008167ffffffffffffffff811115610f9c57634e487b7160e01b600052604160045260246000fd5b6040519080825280601f01601f191660200182016040528015610fc6576020820181803683370190505b5090508181016020015b600019016f181899199a1a9b1b9c1cb0b131b232b360811b600a86061a8153600a8504945084610fff57610b6d565b610fd0565b81518351146110665760405162461bcd60e51b815260206004820152602860248201527f455243313135353a2069647320616e6420616d6f756e7473206c656e677468206044820152670dad2e6dac2e8c6d60c31b606482015260840161081f565b6001600160a01b03841661108c5760405162461bcd60e51b815260040161081f90612376565b3361109b818787878787611763565b60005b845181101561119d5760008582815181106110c957634e487b7160e01b600052603260045260246000fd5b6020026020010151905060008583815181106110f557634e487b7160e01b600052603260045260246000fd5b602090810291909101810151600084815280835260408082206001600160a01b038e1683529093529190912054909150818110156111455760405162461bcd60e51b815260040161081f906123bb565b6000838152602081815260408083206001600160a01b038e8116855292528083208585039055908b16825281208054849290611182908490612429565b9250508190555050505080611196906124d9565b905061109e565b50846001600160a01b0316866001600160a01b0316826001600160a01b03167f4a39dc06d4c0dbc64b70af90fd698a233a518aa5d07e595d983b8c0526c8f7fb87876040516111ed92919061229f565b60405180910390a4611203818787878787611779565b505050505050565b6112136118e4565b6003805460ff60a01b191690557f5db9ee0a495bf2e6ff9c91a7834c1ba4fdd244a5e8aa4e537bd38aeae4b073aa335b6040516001600160a01b03909116815260200160405180910390a1565b600380546001600160a01b038381166001600160a01b0319831681179093556040519116919082907f8be0079c531659141344cd1fd0a4f28419497f9722a3daafe3b4186f6b6457e090600090a35050565b6112ba611934565b6003805460ff60a01b1916600160a01b1790557f62e78cea01bee320cd4e420270b5ea74000d11b0c9f74754ebdbfc544b05a2586112433390565b6001600160a01b0384166113555760405162461bcd60e51b815260206004820152602160248201527f455243313135353a206d696e7420746f20746865207a65726f206164647265736044820152607360f81b606482015260840161081f565b33600061136185611981565b9050600061136e85611981565b905061137f83600089858589611763565b6000868152602081815260408083206001600160a01b038b168452909152812080548792906113af908490612429565b909155505060408051878152602081018790526001600160a01b03808a1692600092918716917fc3d58168c5ae7397731d063d5bbf3d657854427343f4c083240f7aacaa2d0f62910160405180910390a461140f836000898989896119da565b50505050505050565b816001600160a01b0316836001600160a01b0316141561148c5760405162461bcd60e51b815260206004820152602960248201527f455243313135353a2073657474696e6720617070726f76616c20737461747573604482015268103337b91039b2b63360b91b606482015260840161081f565b6001600160a01b03838116600081815260016020908152604080832094871680845294825291829020805460ff191686151590811790915591519182527f17307eab39ab6107e8899845ad3d59bd9653f200f220920489ca2b5937696c31910160405180910390a3505050565b6002600554141561154c5760405162461bcd60e51b815260206004820152601f60248201527f5265656e7472616e637947756172643a207265656e7472616e742063616c6c00604482015260640161081f565b6002600555565b6001600160a01b0384166115795760405162461bcd60e51b815260040161081f90612376565b33600061158585611981565b9050600061159285611981565b90506115a2838989858589611763565b6000868152602081815260408083206001600160a01b038c168452909152902054858110156115e35760405162461bcd60e51b815260040161081f906123bb565b6000878152602081815260408083206001600160a01b038d8116855292528083208985039055908a16825281208054889290611620908490612429565b909155505060408051888152602081018890526001600160a01b03808b16928c821692918816917fc3d58168c5ae7397731d063d5bbf3d657854427343f4c083240f7aacaa2d0f62910160405180910390a4611680848a8a8a8a8a6119da565b505050505050505050565b60008072184f03e93ff9f4daa797ed6e38ed64bf6a1f0160401b83106116ca5772184f03e93ff9f4daa797ed6e38ed64bf6a1f0160401b830492506040015b6d04ee2d6d415b85acef810000000083106116f6576d04ee2d6d415b85acef8100000000830492506020015b662386f26fc10000831061171457662386f26fc10000830492506010015b6305f5e100831061172c576305f5e100830492506008015b612710831061174057612710830492506004015b60648310611752576064830492506002015b600a831061089a5760010192915050565b61176b611934565b611203868686868686611aa4565b6001600160a01b0384163b156112035760405163bc197c8160e01b81526001600160a01b0385169063bc197c81906117bd90899089908890889088906004016121e9565b602060405180830381600087803b1580156117d757600080fd5b505af1925050508015611807575060408051601f3d908101601f19168201909252611804918101906120a1565b60015b6118b457611813612520565b806308c379a0141561184d5750611828612538565b80611833575061184f565b8060405162461bcd60e51b815260040161081f91906122cd565b505b60405162461bcd60e51b815260206004820152603460248201527f455243313135353a207472616e7366657220746f206e6f6e2d455243313135356044820152732932b1b2b4bb32b91034b6b83632b6b2b73a32b960611b606482015260840161081f565b6001600160e01b0319811663bc197c8160e01b1461140f5760405162461bcd60e51b815260040161081f906122e0565b600354600160a01b900460ff16610a115760405162461bcd60e51b815260206004820152601460248201527314185d5cd8589b194e881b9bdd081c185d5cd95960621b604482015260640161081f565b600354600160a01b900460ff1615610a115760405162461bcd60e51b815260206004820152601060248201526f14185d5cd8589b194e881c185d5cd95960821b604482015260640161081f565b604080516001808252818301909252606091600091906020808301908036833701905050905082816000815181106119c957634e487b7160e01b600052603260045260246000fd5b602090810291909101015292915050565b6001600160a01b0384163b156112035760405163f23a6e6160e01b81526001600160a01b0385169063f23a6e6190611a1e9089908990889088908890600401612247565b602060405180830381600087803b158015611a3857600080fd5b505af1925050508015611a68575060408051601f3d908101601f19168201909252611a65918101906120a1565b60015b611a7457611813612520565b6001600160e01b0319811663f23a6e6160e01b1461140f5760405162461bcd60e51b815260040161081f906122e0565b6001600160a01b038516611b475760005b8351811015611b4557828181518110611ade57634e487b7160e01b600052603260045260246000fd5b602002602001015160046000868481518110611b0a57634e487b7160e01b600052603260045260246000fd5b602002602001015181526020019081526020016000206000828254611b2f9190612429565b90915550611b3e9050816124d9565b9050611ab5565b505b6001600160a01b0384166112035760005b835181101561140f576000848281518110611b8357634e487b7160e01b600052603260045260246000fd5b602002602001015190506000848381518110611baf57634e487b7160e01b600052603260045260246000fd5b6020026020010151905060006004600084815260200190815260200160002054905081811015611c325760405162461bcd60e51b815260206004820152602860248201527f455243313135353a206275726e20616d6f756e74206578636565647320746f74604482015267616c537570706c7960c01b606482015260840161081f565b60009283526004602052604090922091039055611c4e816124d9565b9050611b58565b828054611c6190612471565b90600052602060002090601f016020900481019282611c835760008555611cc9565b82601f10611c9c57805160ff1916838001178555611cc9565b82800160010185558215611cc9579182015b82811115611cc9578251825591602001919060010190611cae565b50611cd5929150611cd9565b5090565b5b80821115611cd55760008155600101611cda565b600067ffffffffffffffff831115611d0857611d0861250a565b604051611d1f601f8501601f1916602001826124ac565b809150838152848484011115611d3457600080fd5b83836020830137600060208583010152509392505050565b80356001600160a01b0381168114611d6357600080fd5b919050565b600082601f830112611d78578081fd5b81356020611d8582612405565b604051611d9282826124ac565b8381528281019150858301600585901b87018401881015611db1578586fd5b855b85811015611dcf57813584529284019290840190600101611db3565b5090979650505050505050565b600082601f830112611dec578081fd5b611dfb83833560208501611cee565b9392505050565b600060208284031215611e13578081fd5b611dfb82611d4c565b60008060408385031215611e2e578081fd5b611e3783611d4c565b9150611e4560208401611d4c565b90509250929050565b600080600080600060a08688031215611e65578081fd5b611e6e86611d4c565b9450611e7c60208701611d4c565b9350604086013567ffffffffffffffff80821115611e98578283fd5b611ea489838a01611d68565b94506060880135915080821115611eb9578283fd5b611ec589838a01611d68565b93506080880135915080821115611eda578283fd5b50611ee788828901611ddc565b9150509295509295909350565b600080600080600060a08688031215611f0b578081fd5b611f1486611d4c565b9450611f2260208701611d4c565b93506040860135925060608601359150608086013567ffffffffffffffff811115611f4b578182fd5b611ee788828901611ddc565b60008060408385031215611f69578182fd5b611f7283611d4c565b915060208301358015158114611f86578182fd5b809150509250929050565b60008060408385031215611fa3578182fd5b611fac83611d4c565b946020939093013593505050565b60008060408385031215611fcc578182fd5b823567ffffffffffffffff80821115611fe3578384fd5b818501915085601f830112611ff6578384fd5b8135602061200382612405565b60405161201082826124ac565b8381528281019150858301600585901b870184018b101561202f578889fd5b8896505b848710156120585761204481611d4c565b835260019690960195918301918301612033565b509650508601359250508082111561206e578283fd5b5061207b85828601611d68565b9150509250929050565b600060208284031215612096578081fd5b8135611dfb816125c2565b6000602082840312156120b2578081fd5b8151611dfb816125c2565b6000602082840312156120ce578081fd5b813567ffffffffffffffff8111156120e4578182fd5b8201601f810184136120f4578182fd5b61210384823560208401611cee565b949350505050565b60006020828403121561211c578081fd5b5035919050565b60008060408385031215612135578182fd5b50508035926020909101359150565b6000815180845260208085019450808401835b8381101561217357815187529582019590820190600101612157565b509495945050505050565b60008151808452612196816020860160208601612441565b601f01601f19169290920160200192915050565b600083516121bc818460208801612441565b8351908301906121d0818360208801612441565b64173539b7b760d91b9101908152600501949350505050565b6001600160a01b0386811682528516602082015260a06040820181905260009061221590830186612144565b82810360608401526122278186612144565b9050828103608084015261223b818561217e565b98975050505050505050565b6001600160a01b03868116825285166020820152604081018490526060810183905260a0608082018190526000906122819083018461217e565b979650505050505050565b602081526000611dfb6020830184612144565b6040815260006122b26040830185612144565b82810360208401526122c48185612144565b95945050505050565b602081526000611dfb602083018461217e565b60208082526028908201527f455243313135353a204552433131353552656365697665722072656a656374656040820152676420746f6b656e7360c01b606082015260800190565b6020808252602e908201527f455243313135353a2063616c6c6572206973206e6f7420746f6b656e206f776e60408201526d195c881bdc88185c1c1c9bdd995960921b606082015260800190565b60208082526025908201527f455243313135353a207472616e7366657220746f20746865207a65726f206164604082015264647265737360d81b606082015260800190565b6020808252602a908201527f455243313135353a20696e73756666696369656e742062616c616e636520666f60408201526939103a3930b739b332b960b11b606082015260800190565b600067ffffffffffffffff82111561241f5761241f61250a565b5060051b60200190565b6000821982111561243c5761243c6124f4565b500190565b60005b8381101561245c578181015183820152602001612444565b8381111561246b576000848401525b50505050565b600181811c9082168061248557607f821691505b602082108114156124a657634e487b7160e01b600052602260045260246000fd5b50919050565b601f8201601f1916810167ffffffffffffffff811182821017156124d2576124d261250a565b6040525050565b60006000198214156124ed576124ed6124f4565b5060010190565b634e487b7160e01b600052601160045260246000fd5b634e487b7160e01b600052604160045260246000fd5b600060033d111561253557600481823e5160e01c5b90565b600060443d10156125465790565b6040516003193d81016004833e81513d67ffffffffffffffff816024840111818411171561257657505050505090565b828501915081518181111561258e5750505050505090565b843d87010160208285010111156125a85750505050505090565b6125b7602082860101876124ac565b509095945050505050565b6001600160e01b0319811681146108b157600080fdfea26469706673582212203119931e6bf830dc2654e172b6d4b68fbe3d1c7cdb57793578908b620bcd77f664736f6c63430008040033697066733a2f2f516d5339685941414162536e697966554a4d78555a7650636d3169526b626d38726a4a6f444e445678756d31654e2f",
  "linkReferences": {},
  "deployedLinkReferences": {}
}