{
  "_format": "hh-sol-artifact-1",
  "contractName": "DexBattle",
  "sourceName": "contracts/DexBattle.sol",
  "abi": [
    {
      "inputs": [
        {
          "internalType": "address",
          "name": "_tokenAddress",
          "type": "address"
        }
      ],
      "stateMutability": "nonpayable",
      "type": "constructor"
    },
    {
      "anonymous": false,
      "inputs": [
        {
          "indexed": true,
          "internalType": "address",
          "name": "account",
          "type": "address"
        },
        {
          "indexed": true,
          "internalType": "address",
          "name": "operator",
          "type": "address"
        },
        {
          "indexed": false,
          "internalType": "bool",
          "name": "approved",
          "type": "bool"
        }
      ],
      "name": "ApprovalForAll",
      "type": "event"
    },
    {
      "anonymous": false,
      "inputs": [
        {
          "indexed": true,
          "internalType": "address",
          "name": "previousOwner",
          "type": "address"
        },
        {
          "indexed": true,
          "internalType": "address",
          "name": "newOwner",
          "type": "address"
        }
      ],
      "name": "OwnershipTransferred",
      "type": "event"
    },
    {
      "anonymous": false,
      "inputs": [
        {
          "indexed": false,
          "internalType": "address",
          "name": "account",
          "type": "address"
        }
      ],
      "name": "Paused",
      "type": "event"
    },
    {
      "anonymous": false,
      "inputs": [
        {
          "indexed": true,
          "internalType": "address",
          "name": "operator",
          "type": "address"
        },
        {
          "indexed": true,
          "internalType": "address",
          "name": "from",
          "type": "address"
        },
        {
          "indexed": true,
          "internalType": "address",
          "name": "to",
          "type": "address"
        },
        {
          "indexed": false,
          "internalType": "uint256[]",
          "name": "ids",
          "type": "uint256[]"
        },
        {
          "indexed": false,
          "internalType": "uint256[]",
          "name": "values",
          "type": "uint256[]"
        }
      ],
      "name": "TransferBatch",
      "type": "event"
    },
    {
      "anonymous": false,
      "inputs": [
        {
          "indexed": true,
          "internalType": "address",
          "name": "operator",
          "type": "address"
        },
        {
          "indexed": true,
          "internalType": "address",
          "name": "from",
          "type": "address"
        },
        {
          "indexed": true,
          "internalType": "address",
          "name": "to",
          "type": "address"
        },
        {
          "indexed": false,
          "internalType": "uint256",
          "name": "id",
          "type": "uint256"
        },
        {
          "indexed": false,
          "internalType": "uint256",
          "name": "value",
          "type": "uint256"
        }
      ],
      "name": "TransferSingle",
      "type": "event"
    },
    {
      "anonymous": false,
      "inputs": [
        {
          "indexed": false,
          "internalType": "string",
          "name": "value",
          "type": "string"
        },
        {
          "indexed": true,
          "internalType": "uint256",
          "name": "id",
          "type": "uint256"
        }
      ],
      "name": "URI",
      "type": "event"
    },
    {
      "anonymous": false,
      "inputs": [
        {
          "indexed": false,
          "internalType": "address",
          "name": "account",
          "type": "address"
        }
      ],
      "name": "Unpaused",
      "type": "event"
    },
    {
      "inputs": [],
      "name": "Common_items_cost",
      "outputs": [
        {
          "internalType": "uint256",
          "name": "",
          "type": "uint256"
        }
      ],
      "stateMutability": "view",
      "type": "function"
    },
    {
      "inputs": [],
      "name": "Epic_items_cost",
      "outputs": [
        {
          "internalType": "uint256",
          "name": "",
          "type": "uint256"
        }
      ],
      "stateMutability": "view",
      "type": "function"
    },
    {
      "inputs": [],
      "name": "Leader_items_cost",
      "outputs": [
        {
          "internalType": "uint256",
          "name": "",
          "type": "uint256"
        }
      ],
      "stateMutability": "view",
      "type": "function"
    },
    {
      "inputs": [],
      "name": "Legendary_items_cost",
      "outputs": [
        {
          "internalType": "uint256",
          "name": "",
          "type": "uint256"
        }
      ],
      "stateMutability": "view",
      "type": "function"
    },
    {
      "inputs": [],
      "name": "Rare_items_cost",
      "outputs": [
        {
          "internalType": "uint256",
          "name": "",
          "type": "uint256"
        }
      ],
      "stateMutability": "view",
      "type": "function"
    },
    {
      "inputs": [],
      "name": "Uncommon_items_cost",
      "outputs": [
        {
          "internalType": "uint256",
          "name": "",
          "type": "uint256"
        }
      ],
      "stateMutability": "view",
      "type": "function"
    },
    {
      "inputs": [
        {
          "internalType": "address",
          "name": "account",
          "type": "address"
        },
        {
          "internalType": "uint256",
          "name": "id",
          "type": "uint256"
        }
      ],
      "name": "balanceOf",
      "outputs": [
        {
          "internalType": "uint256",
          "name": "",
          "type": "uint256"
        }
      ],
      "stateMutability": "view",
      "type": "function"
    },
    {
      "inputs": [
        {
          "internalType": "address[]",
          "name": "accounts",
          "type": "address[]"
        },
        {
          "internalType": "uint256[]",
          "name": "ids",
          "type": "uint256[]"
        }
      ],
      "name": "balanceOfBatch",
      "outputs": [
        {
          "internalType": "uint256[]",
          "name": "",
          "type": "uint256[]"
        }
      ],
      "stateMutability": "view",
      "type": "function"
    },
    {
      "inputs": [
        {
          "internalType": "uint256",
          "name": "id",
          "type": "uint256"
        }
      ],
      "name": "exists",
      "outputs": [
        {
          "internalType": "bool",
          "name": "",
          "type": "bool"
        }
      ],
      "stateMutability": "view",
      "type": "function"
    },
    {
      "inputs": [
        {
          "internalType": "address",
          "name": "account",
          "type": "address"
        },
        {
          "internalType": "address",
          "name": "operator",
          "type": "address"
        }
      ],
      "name": "isApprovedForAll",
      "outputs": [
        {
          "internalType": "bool",
          "name": "",
          "type": "bool"
        }
      ],
      "stateMutability": "view",
      "type": "function"
    },
    {
      "inputs": [],
      "name": "maxCommonSupply",
      "outputs": [
        {
          "internalType": "uint256",
          "name": "",
          "type": "uint256"
        }
      ],
      "stateMutability": "view",
      "type": "function"
    },
    {
      "inputs": [],
      "name": "maxEpicSupply",
      "outputs": [
        {
          "internalType": "uint256",
          "name": "",
          "type": "uint256"
        }
      ],
      "stateMutability": "view",
      "type": "function"
    },
    {
      "inputs": [],
      "name": "maxLeaderSupply",
      "outputs": [
        {
          "internalType": "uint256",
          "name": "",
          "type": "uint256"
        }
      ],
      "stateMutability": "view",
      "type": "function"
    },
    {
      "inputs": [],
      "name": "maxLegendarySupply",
      "outputs": [
        {
          "internalType": "uint256",
          "name": "",
          "type": "uint256"
        }
      ],
      "stateMutability": "view",
      "type": "function"
    },
    {
      "inputs": [],
      "name": "maxRareSupply",
      "outputs": [
        {
          "internalType": "uint256",
          "name": "",
          "type": "uint256"
        }
      ],
      "stateMutability": "view",
      "type": "function"
    },
    {
      "inputs": [],
      "name": "maxUncommonSupply",
      "outputs": [
        {
          "internalType": "uint256",
          "name": "",
          "type": "uint256"
        }
      ],
      "stateMutability": "view",
      "type": "function"
    },
    {
      "inputs": [
        {
          "internalType": "uint256",
          "name": "id",
          "type": "uint256"
        }
      ],
      "name": "mint",
      "outputs": [],
      "stateMutability": "nonpayable",
      "type": "function"
    },
    {
      "inputs": [],
      "name": "owner",
      "outputs": [
        {
          "internalType": "address",
          "name": "",
          "type": "address"
        }
      ],
      "stateMutability": "view",
      "type": "function"
    },
    {
      "inputs": [],
      "name": "pause",
      "outputs": [],
      "stateMutability": "nonpayable",
      "type": "function"
    },
    {
      "inputs": [],
      "name": "paused",
      "outputs": [
        {
          "internalType": "bool",
          "name": "",
          "type": "bool"
        }
      ],
      "stateMutability": "view",
      "type": "function"
    },
    {
      "inputs": [],
      "name": "renounceOwnership",
      "outputs": [],
      "stateMutability": "nonpayable",
      "type": "function"
    },
    {
      "inputs": [
        {
          "internalType": "address",
          "name": "from",
          "type": "address"
        },
        {
          "internalType": "address",
          "name": "to",
          "type": "address"
        },
        {
          "internalType": "uint256[]",
          "name": "ids",
          "type": "uint256[]"
        },
        {
          "internalType": "uint256[]",
          "name": "amounts",
          "type": "uint256[]"
        },
        {
          "internalType": "bytes",
          "name": "data",
          "type": "bytes"
        }
      ],
      "name": "safeBatchTransferFrom",
      "outputs": [],
      "stateMutability": "nonpayable",
      "type": "function"
    },
    {
      "inputs": [
        {
          "internalType": "address",
          "name": "from",
          "type": "address"
        },
        {
          "internalType": "address",
          "name": "to",
          "type": "address"
        },
        {
          "internalType": "uint256",
          "name": "id",
          "type": "uint256"
        },
        {
          "internalType": "uint256",
          "name": "amount",
          "type": "uint256"
        },
        {
          "internalType": "bytes",
          "name": "data",
          "type": "bytes"
        }
      ],
      "name": "safeTransferFrom",
      "outputs": [],
      "stateMutability": "nonpayable",
      "type": "function"
    },
    {
      "inputs": [
        {
          "internalType": "address",
          "name": "operator",
          "type": "address"
        },
        {
          "internalType": "bool",
          "name": "approved",
          "type": "bool"
        }
      ],
      "name": "setApprovalForAll",
      "outputs": [],
      "stateMutability": "nonpayable",
      "type": "function"
    },
    {
      "inputs": [
        {
          "internalType": "uint256",
          "name": "_newsupply",
          "type": "uint256"
        }
      ],
      "name": "setMaxCommonSupply",
      "outputs": [],
      "stateMutability": "nonpayable",
      "type": "function"
    },
    {
      "inputs": [
        {
          "internalType": "uint256",
          "name": "_newsupply",
          "type": "uint256"
        }
      ],
      "name": "setMaxEpicSupply",
      "outputs": [],
      "stateMutability": "nonpayable",
      "type": "function"
    },
    {
      "inputs": [
        {
          "internalType": "uint256",
          "name": "_newsupply",
          "type": "uint256"
        }
      ],
      "name": "setMaxLegendarySupply",
      "outputs": [],
      "stateMutability": "nonpayable",
      "type": "function"
    },
    {
      "inputs": [
        {
          "internalType": "uint256",
          "name": "_newsupply",
          "type": "uint256"
        }
      ],
      "name": "setMaxRareSupply",
      "outputs": [],
      "stateMutability": "nonpayable",
      "type": "function"
    },
    {
      "inputs": [
        {
          "internalType": "uint256",
          "name": "_newsupply",
          "type": "uint256"
        }
      ],
      "name": "setMaxUncommonSupply",
      "outputs": [],
      "stateMutability": "nonpayable",
      "type": "function"
    },
    {
      "inputs": [
        {
          "internalType": "uint256",
          "name": "_newsupply",
          "type": "uint256"
        }
      ],
      "name": "setMaxleaderSupply",
      "outputs": [],
      "stateMutability": "nonpayable",
      "type": "function"
    },
    {
      "inputs": [
        {
          "internalType": "string",
          "name": "newuri",
          "type": "string"
        }
      ],
      "name": "setURI",
      "outputs": [],
      "stateMutability": "nonpayable",
      "type": "function"
    },
    {
      "inputs": [
        {
          "internalType": "uint256",
          "name": "_newcost",
          "type": "uint256"
        }
      ],
      "name": "set_Common_items_cost",
      "outputs": [],
      "stateMutability": "nonpayable",
      "type": "function"
    },
    {
      "inputs": [
        {
          "internalType": "uint256",
          "name": "_newcost",
          "type": "uint256"
        }
      ],
      "name": "set_Epic_items_cost",
      "outputs": [],
      "stateMutability": "nonpayable",
      "type": "function"
    },
    {
      "inputs": [
        {
          "internalType": "uint256",
          "name": "_newcost",
          "type": "uint256"
        }
      ],
      "name": "set_Leader_items_cost",
      "outputs": [],
      "stateMutability": "nonpayable",
      "type": "function"
    },
    {
      "inputs": [
        {
          "internalType": "uint256",
          "name": "_newcost",
          "type": "uint256"
        }
      ],
      "name": "set_Legendary_items_cost",
      "outputs": [],
      "stateMutability": "nonpayable",
      "type": "function"
    },
    {
      "inputs": [
        {
          "internalType": "uint256",
          "name": "_newcost",
          "type": "uint256"
        }
      ],
      "name": "set_Rare_items_cost",
      "outputs": [],
      "stateMutability": "nonpayable",
      "type": "function"
    },
    {
      "inputs": [
        {
          "internalType": "uint256",
          "name": "_newcost",
          "type": "uint256"
        }
      ],
      "name": "set_Uncommon_items_cost",
      "outputs": [],
      "stateMutability": "nonpayable",
      "type": "function"
    },
    {
      "inputs": [
        {
          "internalType": "bytes4",
          "name": "interfaceId",
          "type": "bytes4"
        }
      ],
      "name": "supportsInterface",
      "outputs": [
        {
          "internalType": "bool",
          "name": "",
          "type": "bool"
        }
      ],
      "stateMutability": "view",
      "type": "function"
    },
    {
      "inputs": [],
      "name": "tokenAddress",
      "outputs": [
        {
          "internalType": "contract IERC20",
          "name": "",
          "type": "address"
        }
      ],
      "stateMutability": "view",
      "type": "function"
    },
    {
      "inputs": [
        {
          "internalType": "uint256",
          "name": "id",
          "type": "uint256"
        }
      ],
      "name": "totalSupply",
      "outputs": [
        {
          "internalType": "uint256",
          "name": "",
          "type": "uint256"
        }
      ],
      "stateMutability": "view",
      "type": "function"
    },
    {
      "inputs": [
        {
          "internalType": "address",
          "name": "newOwner",
          "type": "address"
        }
      ],
      "name": "transferOwnership",
      "outputs": [],
      "stateMutability": "nonpayable",
      "type": "function"
    },
    {
      "inputs": [],
      "name": "unpause",
      "outputs": [],
      "stateMutability": "nonpayable",
      "type": "function"
    },
    {
      "inputs": [
        {
          "internalType": "uint256",
          "name": "_id",
          "type": "uint256"
        }
      ],
      "name": "uri",
      "outputs": [
        {
          "internalType": "string",
          "name": "",
          "type": "string"
        }
      ],
      "stateMutability": "view",
      "type": "function"
    },
    {
      "inputs": [],
      "name": "withdrawToken",
      "outputs": [],
      "stateMutability": "nonpayable",
      "type": "function"
    }
  ],
  "bytecode": "0x60806040526003600555606460065560c860075561012c6008556101906009556101f4600a55610bb8600b5560c8600c556096600d556064600e55604b600f5560326010553480156200005157600080fd5b5060405162002767380380620027678339810160408190526200007491620001e9565b60405180606001604052806036815260200162002731603691396200009981620000d8565b50620000a533620000f1565b6003805460ff60a01b19169055601380546001600160a01b0319166001600160a01b039290921691909117905562000256565b8051620000ed90600290602084019062000143565b5050565b600380546001600160a01b038381166001600160a01b0319831681179093556040519116919082907f8be0079c531659141344cd1fd0a4f28419497f9722a3daafe3b4186f6b6457e090600090a35050565b828054620001519062000219565b90600052602060002090601f016020900481019282620001755760008555620001c0565b82601f106200019057805160ff1916838001178555620001c0565b82800160010185558215620001c0579182015b82811115620001c0578251825591602001919060010190620001a3565b50620001ce929150620001d2565b5090565b5b80821115620001ce5760008155600101620001d3565b600060208284031215620001fb578081fd5b81516001600160a01b038116811462000212578182fd5b9392505050565b600181811c908216806200022e57607f821691505b602082108114156200025057634e487b7160e01b600052602260045260246000fd5b50919050565b6124cb80620002666000396000f3fe608060405234801561001057600080fd5b50600436106102735760003560e01c80639a41aa7311610151578063c8eb86c8116100c3578063da248c4b11610087578063da248c4b1461051c578063dd6f17521461052f578063e985e9c514610538578063f242432a14610574578063f2fde38b14610587578063fad078df1461059a57600080fd5b8063c8eb86c8146104e6578063ca5605b3146104ef578063ca628c78146104f8578063ce1d91f414610500578063d02439fe1461051357600080fd5b8063aeb8062111610115578063aeb8062114610471578063b78a5d7714610484578063b7e2698d14610497578063b7f24320146104aa578063bd85b039146104bd578063bf7ee4a5146104dd57600080fd5b80639a41aa73146104265780639d76ea581461042f578063a0712d6814610442578063a22cb46514610455578063ab2483481461046857600080fd5b80634e1273f4116101ea57806366871520116101ae57806366871520146103b8578063715018a6146103cb5780637814308b146103d35780638456cb59146103e65780638d61e9f1146103ee5780638da5cb5b1461040157600080fd5b80634e1273f4146103485780634f558e7914610368578063559c039a1461038a5780635c774f03146103935780635c975abb146103a657600080fd5b806325ba5f561161023c57806325ba5f56146103095780632eb2c2d6146103125780633235d397146103255780633ba09b9e1461032e5780633f4ba83a1461033757806340624b791461033f57600080fd5b8062fdd58e1461027857806301ffc9a71461029e57806302fe5305146102c15780630e89341c146102d65780631e6b8b82146102f6575b600080fd5b61028b610286366004611e0e565b6105ad565b6040519081526020015b60405180910390f35b6102b16102ac366004611f1e565b610643565b6040519015158152602001610295565b6102d46102cf366004611f56565b610695565b005b6102e96102e4366004611fa4565b6106a9565b604051610295919061215d565b6102d4610304366004611fa4565b610740565b61028b60085481565b6102d4610320366004611ccf565b61074d565b61028b60055481565b61028b60075481565b6102d4610799565b61028b600d5481565b61035b610356366004611e37565b6107ab565b604051610295919061211c565b6102b1610376366004611fa4565b600090815260046020526040902054151590565b61028b60095481565b6102d46103a1366004611fa4565b61090d565b600354600160a01b900460ff166102b1565b6102d46103c6366004611fa4565b61091a565b6102d4610927565b6102d46103e1366004611fa4565b610939565b6102d4610946565b6102d46103fc366004611fa4565b610956565b6003546001600160a01b03165b6040516001600160a01b039091168152602001610295565b61028b600b5481565b60135461040e906001600160a01b031681565b6102d4610450366004611fa4565b610963565b6102d4610463366004611dd8565b610b0b565b61028b60065481565b6102d461047f366004611fa4565b610b1a565b6102d4610492366004611fa4565b610b27565b6102d46104a5366004611fa4565b610b34565b6102d46104b8366004611fa4565b610b41565b61028b6104cb366004611fa4565b60009081526004602052604090205490565b61028b60105481565b61028b600e5481565b61028b600f5481565b6102d4610b4e565b6102d461050e366004611fa4565b610c59565b61028b600c5481565b6102d461052a366004611fa4565b610c66565b61028b600a5481565b6102b1610546366004611c9d565b6001600160a01b03918216600090815260016020908152604080832093909416825291909152205460ff1690565b6102d4610582366004611d75565b610c73565b6102d4610595366004611c83565b610cb8565b6102d46105a8366004611fa4565b610d2e565b60006001600160a01b03831661061d5760405162461bcd60e51b815260206004820152602a60248201527f455243313135353a2061646472657373207a65726f206973206e6f742061207660448201526930b634b21037bbb732b960b11b60648201526084015b60405180910390fd5b506000908152602081815260408083206001600160a01b03949094168352929052205490565b60006001600160e01b03198216636cdb3d1360e11b148061067457506001600160e01b031982166303a24d0760e21b145b8061068f57506301ffc9a760e01b6001600160e01b03198316145b92915050565b61069d610d3b565b6106a681610d95565b50565b6000818152600460205260409020546060906107075760405162461bcd60e51b815260206004820152601860248201527f5552493a20746f6b656e20646f65736e277420657869737400000000000000006044820152606401610614565b61071082610da8565b61071983610e3c565b60405160200161072a92919061203a565b6040516020818303038152906040529050919050565b610748610d3b565b600555565b6001600160a01b03851633148061076957506107698533610546565b6107855760405162461bcd60e51b8152600401610614906121b8565b6107928585858585610edf565b5050505050565b6107a1610d3b565b6107a96110e6565b565b606081518351146108105760405162461bcd60e51b815260206004820152602960248201527f455243313135353a206163636f756e747320616e6420696473206c656e677468604482015268040dad2e6dac2e8c6d60bb1b6064820152608401610614565b6000835167ffffffffffffffff81111561083a57634e487b7160e01b600052604160045260246000fd5b604051908082528060200260200182016040528015610863578160200160208202803683370190505b50905060005b8451811015610905576108ca85828151811061089557634e487b7160e01b600052603260045260246000fd5b60200260200101518583815181106108bd57634e487b7160e01b600052603260045260246000fd5b60200260200101516105ad565b8282815181106108ea57634e487b7160e01b600052603260045260246000fd5b60209081029190910101526108fe81612388565b9050610869565b509392505050565b610915610d3b565b600b55565b610922610d3b565b600655565b61092f610d3b565b6107a9600061113b565b610941610d3b565b600f55565b61094e610d3b565b6107a961118d565b61095e610d3b565b600d55565b6080811061097c57600654601155600c546012556109ed565b6063811061099557600754601155600d546012556109ed565b604081106109ae57600854601155600e546012556109ed565b602581106109c757600954601155600f546012556109ed565b600a81106109e057600a546011556010546012556109ed565b600554601155600b546012555b60115460008281526004602052604090205410610a395760405162461bcd60e51b815260206004820152600a60248201526915d9481cdbdb191bdd5d60b21b6044820152606401610614565b6013546012546001600160a01b03909116906323b872dd9033903090610a6790670de0b6b3a76400006122d1565b6040516001600160e01b031960e086901b1681526001600160a01b0393841660048201529290911660248301526044820152606401602060405180830381600087803b158015610ab657600080fd5b505af1158015610aca573d6000803e3d6000fd5b505050506040513d601f19601f82011682018060405250810190610aee9190611f02565b506106a633826001604051806020016040528060008152506111d0565b610b163383836112f3565b5050565b610b22610d3b565b600955565b610b2f610d3b565b600e55565b610b3c610d3b565b600a55565b610b49610d3b565b600855565b610b56610d3b565b6013546040516370a0823160e01b81523060048201526001600160a01b039091169063a9059cbb90339083906370a082319060240160206040518083038186803b158015610ba357600080fd5b505afa158015610bb7573d6000803e3d6000fd5b505050506040513d601f19601f82011682018060405250810190610bdb9190611fbc565b6040516001600160e01b031960e085901b1681526001600160a01b0390921660048301526024820152604401602060405180830381600087803b158015610c2157600080fd5b505af1158015610c35573d6000803e3d6000fd5b505050506040513d601f19601f820116820180604052508101906106a69190611f02565b610c61610d3b565b600c55565b610c6e610d3b565b601055565b6001600160a01b038516331480610c8f5750610c8f8533610546565b610cab5760405162461bcd60e51b8152600401610614906121b8565b61079285858585856113d4565b610cc0610d3b565b6001600160a01b038116610d255760405162461bcd60e51b815260206004820152602660248201527f4f776e61626c653a206e6577206f776e657220697320746865207a65726f206160448201526564647265737360d01b6064820152608401610614565b6106a68161113b565b610d36610d3b565b600755565b6003546001600160a01b031633146107a95760405162461bcd60e51b815260206004820181905260248201527f4f776e61626c653a2063616c6c6572206973206e6f7420746865206f776e65726044820152606401610614565b8051610b16906002906020840190611ad6565b606060028054610db790612320565b80601f0160208091040260200160405190810160405280929190818152602001828054610de390612320565b8015610e305780601f10610e0557610100808354040283529160200191610e30565b820191906000526020600020905b815481529060010190602001808311610e1357829003601f168201915b50505050509050919050565b60606000610e498361150c565b600101905060008167ffffffffffffffff811115610e7757634e487b7160e01b600052604160045260246000fd5b6040519080825280601f01601f191660200182016040528015610ea1576020820181803683370190505b5090508181016020015b600019016f181899199a1a9b1b9c1cb0b131b232b360811b600a86061a8153600a8504945084610eda57610905565b610eab565b8151835114610f415760405162461bcd60e51b815260206004820152602860248201527f455243313135353a2069647320616e6420616d6f756e7473206c656e677468206044820152670dad2e6dac2e8c6d60c31b6064820152608401610614565b6001600160a01b038416610f675760405162461bcd60e51b815260040161061490612206565b33610f768187878787876115e4565b60005b8451811015611078576000858281518110610fa457634e487b7160e01b600052603260045260246000fd5b602002602001015190506000858381518110610fd057634e487b7160e01b600052603260045260246000fd5b602090810291909101810151600084815280835260408082206001600160a01b038e1683529093529190912054909150818110156110205760405162461bcd60e51b81526004016106149061224b565b6000838152602081815260408083206001600160a01b038e8116855292528083208585039055908b1682528120805484929061105d9084906122b9565b925050819055505050508061107190612388565b9050610f79565b50846001600160a01b0316866001600160a01b0316826001600160a01b03167f4a39dc06d4c0dbc64b70af90fd698a233a518aa5d07e595d983b8c0526c8f7fb87876040516110c892919061212f565b60405180910390a46110de8187878787876115fa565b505050505050565b6110ee611765565b6003805460ff60a01b191690557f5db9ee0a495bf2e6ff9c91a7834c1ba4fdd244a5e8aa4e537bd38aeae4b073aa335b6040516001600160a01b03909116815260200160405180910390a1565b600380546001600160a01b038381166001600160a01b0319831681179093556040519116919082907f8be0079c531659141344cd1fd0a4f28419497f9722a3daafe3b4186f6b6457e090600090a35050565b6111956117b5565b6003805460ff60a01b1916600160a01b1790557f62e78cea01bee320cd4e420270b5ea74000d11b0c9f74754ebdbfc544b05a25861111e3390565b6001600160a01b0384166112305760405162461bcd60e51b815260206004820152602160248201527f455243313135353a206d696e7420746f20746865207a65726f206164647265736044820152607360f81b6064820152608401610614565b33600061123c85611802565b9050600061124985611802565b905061125a836000898585896115e4565b6000868152602081815260408083206001600160a01b038b1684529091528120805487929061128a9084906122b9565b909155505060408051878152602081018790526001600160a01b03808a1692600092918716917fc3d58168c5ae7397731d063d5bbf3d657854427343f4c083240f7aacaa2d0f62910160405180910390a46112ea8360008989898961185b565b50505050505050565b816001600160a01b0316836001600160a01b031614156113675760405162461bcd60e51b815260206004820152602960248201527f455243313135353a2073657474696e6720617070726f76616c20737461747573604482015268103337b91039b2b63360b91b6064820152608401610614565b6001600160a01b03838116600081815260016020908152604080832094871680845294825291829020805460ff191686151590811790915591519182527f17307eab39ab6107e8899845ad3d59bd9653f200f220920489ca2b5937696c31910160405180910390a3505050565b6001600160a01b0384166113fa5760405162461bcd60e51b815260040161061490612206565b33600061140685611802565b9050600061141385611802565b90506114238389898585896115e4565b6000868152602081815260408083206001600160a01b038c168452909152902054858110156114645760405162461bcd60e51b81526004016106149061224b565b6000878152602081815260408083206001600160a01b038d8116855292528083208985039055908a168252812080548892906114a19084906122b9565b909155505060408051888152602081018890526001600160a01b03808b16928c821692918816917fc3d58168c5ae7397731d063d5bbf3d657854427343f4c083240f7aacaa2d0f62910160405180910390a4611501848a8a8a8a8a61185b565b505050505050505050565b60008072184f03e93ff9f4daa797ed6e38ed64bf6a1f0160401b831061154b5772184f03e93ff9f4daa797ed6e38ed64bf6a1f0160401b830492506040015b6d04ee2d6d415b85acef81000000008310611577576d04ee2d6d415b85acef8100000000830492506020015b662386f26fc10000831061159557662386f26fc10000830492506010015b6305f5e10083106115ad576305f5e100830492506008015b61271083106115c157612710830492506004015b606483106115d3576064830492506002015b600a831061068f5760010192915050565b6115ec6117b5565b6110de868686868686611925565b6001600160a01b0384163b156110de5760405163bc197c8160e01b81526001600160a01b0385169063bc197c819061163e9089908990889088908890600401612079565b602060405180830381600087803b15801561165857600080fd5b505af1925050508015611688575060408051601f3d908101601f1916820190925261168591810190611f3a565b60015b611735576116946123cf565b806308c379a014156116ce57506116a96123e7565b806116b457506116d0565b8060405162461bcd60e51b8152600401610614919061215d565b505b60405162461bcd60e51b815260206004820152603460248201527f455243313135353a207472616e7366657220746f206e6f6e2d455243313135356044820152732932b1b2b4bb32b91034b6b83632b6b2b73a32b960611b6064820152608401610614565b6001600160e01b0319811663bc197c8160e01b146112ea5760405162461bcd60e51b815260040161061490612170565b600354600160a01b900460ff166107a95760405162461bcd60e51b815260206004820152601460248201527314185d5cd8589b194e881b9bdd081c185d5cd95960621b6044820152606401610614565b600354600160a01b900460ff16156107a95760405162461bcd60e51b815260206004820152601060248201526f14185d5cd8589b194e881c185d5cd95960821b6044820152606401610614565b6040805160018082528183019092526060916000919060208083019080368337019050509050828160008151811061184a57634e487b7160e01b600052603260045260246000fd5b602090810291909101015292915050565b6001600160a01b0384163b156110de5760405163f23a6e6160e01b81526001600160a01b0385169063f23a6e619061189f90899089908890889088906004016120d7565b602060405180830381600087803b1580156118b957600080fd5b505af19250505080156118e9575060408051601f3d908101601f191682019092526118e691810190611f3a565b60015b6118f5576116946123cf565b6001600160e01b0319811663f23a6e6160e01b146112ea5760405162461bcd60e51b815260040161061490612170565b6001600160a01b0385166119c85760005b83518110156119c65782818151811061195f57634e487b7160e01b600052603260045260246000fd5b60200260200101516004600086848151811061198b57634e487b7160e01b600052603260045260246000fd5b6020026020010151815260200190815260200160002060008282546119b091906122b9565b909155506119bf905081612388565b9050611936565b505b6001600160a01b0384166110de5760005b83518110156112ea576000848281518110611a0457634e487b7160e01b600052603260045260246000fd5b602002602001015190506000848381518110611a3057634e487b7160e01b600052603260045260246000fd5b6020026020010151905060006004600084815260200190815260200160002054905081811015611ab35760405162461bcd60e51b815260206004820152602860248201527f455243313135353a206275726e20616d6f756e74206578636565647320746f74604482015267616c537570706c7960c01b6064820152608401610614565b60009283526004602052604090922091039055611acf81612388565b90506119d9565b828054611ae290612320565b90600052602060002090601f016020900481019282611b045760008555611b4a565b82601f10611b1d57805160ff1916838001178555611b4a565b82800160010185558215611b4a579182015b82811115611b4a578251825591602001919060010190611b2f565b50611b56929150611b5a565b5090565b5b80821115611b565760008155600101611b5b565b600067ffffffffffffffff831115611b8957611b896123b9565b604051611ba0601f8501601f19166020018261235b565b809150838152848484011115611bb557600080fd5b83836020830137600060208583010152509392505050565b80356001600160a01b0381168114611be457600080fd5b919050565b600082601f830112611bf9578081fd5b81356020611c0682612295565b604051611c13828261235b565b8381528281019150858301600585901b87018401881015611c32578586fd5b855b85811015611c5057813584529284019290840190600101611c34565b5090979650505050505050565b600082601f830112611c6d578081fd5b611c7c83833560208501611b6f565b9392505050565b600060208284031215611c94578081fd5b611c7c82611bcd565b60008060408385031215611caf578081fd5b611cb883611bcd565b9150611cc660208401611bcd565b90509250929050565b600080600080600060a08688031215611ce6578081fd5b611cef86611bcd565b9450611cfd60208701611bcd565b9350604086013567ffffffffffffffff80821115611d19578283fd5b611d2589838a01611be9565b94506060880135915080821115611d3a578283fd5b611d4689838a01611be9565b93506080880135915080821115611d5b578283fd5b50611d6888828901611c5d565b9150509295509295909350565b600080600080600060a08688031215611d8c578081fd5b611d9586611bcd565b9450611da360208701611bcd565b93506040860135925060608601359150608086013567ffffffffffffffff811115611dcc578182fd5b611d6888828901611c5d565b60008060408385031215611dea578182fd5b611df383611bcd565b91506020830135611e0381612471565b809150509250929050565b60008060408385031215611e20578182fd5b611e2983611bcd565b946020939093013593505050565b60008060408385031215611e49578182fd5b823567ffffffffffffffff80821115611e60578384fd5b818501915085601f830112611e73578384fd5b81356020611e8082612295565b604051611e8d828261235b565b8381528281019150858301600585901b870184018b1015611eac578889fd5b8896505b84871015611ed557611ec181611bcd565b835260019690960195918301918301611eb0565b5096505086013592505080821115611eeb578283fd5b50611ef885828601611be9565b9150509250929050565b600060208284031215611f13578081fd5b8151611c7c81612471565b600060208284031215611f2f578081fd5b8135611c7c8161247f565b600060208284031215611f4b578081fd5b8151611c7c8161247f565b600060208284031215611f67578081fd5b813567ffffffffffffffff811115611f7d578182fd5b8201601f81018413611f8d578182fd5b611f9c84823560208401611b6f565b949350505050565b600060208284031215611fb5578081fd5b5035919050565b600060208284031215611fcd578081fd5b5051919050565b6000815180845260208085019450808401835b8381101561200357815187529582019590820190600101611fe7565b509495945050505050565b600081518084526120268160208601602086016122f0565b601f01601f19169290920160200192915050565b6000835161204c8184602088016122f0565b8351908301906120608183602088016122f0565b64173539b7b760d91b9101908152600501949350505050565b6001600160a01b0386811682528516602082015260a0604082018190526000906120a590830186611fd4565b82810360608401526120b78186611fd4565b905082810360808401526120cb818561200e565b98975050505050505050565b6001600160a01b03868116825285166020820152604081018490526060810183905260a0608082018190526000906121119083018461200e565b979650505050505050565b602081526000611c7c6020830184611fd4565b6040815260006121426040830185611fd4565b82810360208401526121548185611fd4565b95945050505050565b602081526000611c7c602083018461200e565b60208082526028908201527f455243313135353a204552433131353552656365697665722072656a656374656040820152676420746f6b656e7360c01b606082015260800190565b6020808252602e908201527f455243313135353a2063616c6c6572206973206e6f7420746f6b656e206f776e60408201526d195c881bdc88185c1c1c9bdd995960921b606082015260800190565b60208082526025908201527f455243313135353a207472616e7366657220746f20746865207a65726f206164604082015264647265737360d81b606082015260800190565b6020808252602a908201527f455243313135353a20696e73756666696369656e742062616c616e636520666f60408201526939103a3930b739b332b960b11b606082015260800190565b600067ffffffffffffffff8211156122af576122af6123b9565b5060051b60200190565b600082198211156122cc576122cc6123a3565b500190565b60008160001904831182151516156122eb576122eb6123a3565b500290565b60005b8381101561230b5781810151838201526020016122f3565b8381111561231a576000848401525b50505050565b600181811c9082168061233457607f821691505b6020821081141561235557634e487b7160e01b600052602260045260246000fd5b50919050565b601f8201601f1916810167ffffffffffffffff81118282101715612381576123816123b9565b6040525050565b600060001982141561239c5761239c6123a3565b5060010190565b634e487b7160e01b600052601160045260246000fd5b634e487b7160e01b600052604160045260246000fd5b600060033d11156123e457600481823e5160e01c5b90565b600060443d10156123f55790565b6040516003193d81016004833e81513d67ffffffffffffffff816024840111818411171561242557505050505090565b828501915081518181111561243d5750505050505090565b843d87010160208285010111156124575750505050505090565b6124666020828601018761235b565b509095945050505050565b80151581146106a657600080fd5b6001600160e01b0319811681146106a657600080fdfea2646970667358221220f65b55cdad6cce9130028b822b5a4f3de4a9649b5af4779673aed02eed54ae9964736f6c63430008040033697066733a2f2f516d656e594e4b636b42436e6b7938393136514c334c766174346f453646643861565a4e735a356e4435417661502f",
  "linkReferences": {},
  "deployedLinkReferences": {}
}